{
  "_format": "hh-sol-artifact-1",
  "contractName": "HealthCare",
  "sourceName": "contracts/PatientRecords.sol",
  "abi": [
    {
      "inputs": [],
      "stateMutability": "nonpayable",
      "type": "constructor"
    },
    {
      "inputs": [
        {
          "internalType": "address",
          "name": "spender",
          "type": "address"
        },
        {
          "internalType": "uint256",
          "name": "allowance",
          "type": "uint256"
        },
        {
          "internalType": "uint256",
          "name": "needed",
          "type": "uint256"
        }
      ],
      "name": "ERC20InsufficientAllowance",
      "type": "error"
    },
    {
      "inputs": [
        {
          "internalType": "address",
          "name": "sender",
          "type": "address"
        },
        {
          "internalType": "uint256",
          "name": "balance",
          "type": "uint256"
        },
        {
          "internalType": "uint256",
          "name": "needed",
          "type": "uint256"
        }
      ],
      "name": "ERC20InsufficientBalance",
      "type": "error"
    },
    {
      "inputs": [
        {
          "internalType": "address",
          "name": "approver",
          "type": "address"
        }
      ],
      "name": "ERC20InvalidApprover",
      "type": "error"
    },
    {
      "inputs": [
        {
          "internalType": "address",
          "name": "receiver",
          "type": "address"
        }
      ],
      "name": "ERC20InvalidReceiver",
      "type": "error"
    },
    {
      "inputs": [
        {
          "internalType": "address",
          "name": "sender",
          "type": "address"
        }
      ],
      "name": "ERC20InvalidSender",
      "type": "error"
    },
    {
      "inputs": [
        {
          "internalType": "address",
          "name": "spender",
          "type": "address"
        }
      ],
      "name": "ERC20InvalidSpender",
      "type": "error"
    },
    {
      "inputs": [
        {
          "internalType": "address",
          "name": "owner",
          "type": "address"
        }
      ],
      "name": "OwnableInvalidOwner",
      "type": "error"
    },
    {
      "inputs": [
        {
          "internalType": "address",
          "name": "account",
          "type": "address"
        }
      ],
      "name": "OwnableUnauthorizedAccount",
      "type": "error"
    },
    {
      "anonymous": false,
      "inputs": [
        {
          "indexed": true,
          "internalType": "address",
          "name": "owner",
          "type": "address"
        },
        {
          "indexed": true,
          "internalType": "address",
          "name": "spender",
          "type": "address"
        },
        {
          "indexed": false,
          "internalType": "uint256",
          "name": "value",
          "type": "uint256"
        }
      ],
      "name": "Approval",
      "type": "event"
    },
    {
      "anonymous": false,
      "inputs": [
        {
          "indexed": false,
          "internalType": "uint256",
          "name": "id",
          "type": "uint256"
        },
        {
          "indexed": false,
          "internalType": "string",
          "name": "encryptedName",
          "type": "string"
        },
        {
          "indexed": false,
          "internalType": "address",
          "name": "walletAddress",
          "type": "address"
        }
      ],
      "name": "HospitalRegistered",
      "type": "event"
    },
    {
      "anonymous": false,
      "inputs": [
        {
          "indexed": true,
          "internalType": "address",
          "name": "previousOwner",
          "type": "address"
        },
        {
          "indexed": true,
          "internalType": "address",
          "name": "newOwner",
          "type": "address"
        }
      ],
      "name": "OwnershipTransferred",
      "type": "event"
    },
    {
      "anonymous": false,
      "inputs": [
        {
          "indexed": false,
          "internalType": "uint256",
          "name": "id",
          "type": "uint256"
        },
        {
          "indexed": false,
          "internalType": "address",
          "name": "walletAddress",
          "type": "address"
        },
        {
          "indexed": false,
          "internalType": "string",
          "name": "ipfsHash",
          "type": "string"
        }
      ],
      "name": "PersonRegistered",
      "type": "event"
    },
    {
      "anonymous": false,
      "inputs": [
        {
          "indexed": true,
          "internalType": "address",
          "name": "from",
          "type": "address"
        },
        {
          "indexed": true,
          "internalType": "address",
          "name": "to",
          "type": "address"
        },
        {
          "indexed": false,
          "internalType": "uint256",
          "name": "value",
          "type": "uint256"
        }
      ],
      "name": "Transfer",
      "type": "event"
    },
    {
      "inputs": [
        {
          "internalType": "address",
          "name": "_patientAddress",
          "type": "address"
        },
        {
          "internalType": "string",
          "name": "_ipfsHash",
          "type": "string"
        }
      ],
      "name": "addPatientDetails",
      "outputs": [],
      "stateMutability": "nonpayable",
      "type": "function"
    },
    {
      "inputs": [
        {
          "internalType": "address",
          "name": "owner",
          "type": "address"
        },
        {
          "internalType": "address",
          "name": "spender",
          "type": "address"
        }
      ],
      "name": "allowance",
      "outputs": [
        {
          "internalType": "uint256",
          "name": "",
          "type": "uint256"
        }
      ],
      "stateMutability": "view",
      "type": "function"
    },
    {
      "inputs": [
        {
          "internalType": "address",
          "name": "spender",
          "type": "address"
        },
        {
          "internalType": "uint256",
          "name": "value",
          "type": "uint256"
        }
      ],
      "name": "approve",
      "outputs": [
        {
          "internalType": "bool",
          "name": "",
          "type": "bool"
        }
      ],
      "stateMutability": "nonpayable",
      "type": "function"
    },
    {
      "inputs": [
        {
          "internalType": "address",
          "name": "account",
          "type": "address"
        }
      ],
      "name": "balanceOf",
      "outputs": [
        {
          "internalType": "uint256",
          "name": "",
          "type": "uint256"
        }
      ],
      "stateMutability": "view",
      "type": "function"
    },
    {
      "inputs": [],
      "name": "decimals",
      "outputs": [
        {
          "internalType": "uint8",
          "name": "",
          "type": "uint8"
        }
      ],
      "stateMutability": "view",
      "type": "function"
    },
    {
      "inputs": [],
      "name": "getAllPatients",
      "outputs": [
        {
          "internalType": "uint256[]",
          "name": "",
          "type": "uint256[]"
        },
        {
          "internalType": "address[]",
          "name": "",
          "type": "address[]"
        },
        {
          "internalType": "string[]",
          "name": "",
          "type": "string[]"
        }
      ],
      "stateMutability": "view",
      "type": "function"
    },
    {
      "inputs": [
        {
          "internalType": "uint256",
          "name": "_id",
          "type": "uint256"
        }
      ],
      "name": "getPatientById",
      "outputs": [
        {
          "internalType": "string",
          "name": "ipfsHash",
          "type": "string"
        }
      ],
      "stateMutability": "view",
      "type": "function"
    },
    {
      "inputs": [
        {
          "internalType": "address",
          "name": "_wallet",
          "type": "address"
        }
      ],
      "name": "getUserType",
      "outputs": [
        {
          "internalType": "enum HealthCare.UserType",
          "name": "",
          "type": "uint8"
        }
      ],
      "stateMutability": "view",
      "type": "function"
    },
    {
      "inputs": [],
      "name": "hospitalCount",
      "outputs": [
        {
          "internalType": "uint256",
          "name": "",
          "type": "uint256"
        }
      ],
      "stateMutability": "view",
      "type": "function"
    },
    {
      "inputs": [
        {
          "internalType": "address",
          "name": "",
          "type": "address"
        }
      ],
      "name": "hospitals",
      "outputs": [
        {
          "internalType": "uint256",
          "name": "id",
          "type": "uint256"
        },
        {
          "internalType": "string",
          "name": "encryptedName",
          "type": "string"
        },
        {
          "internalType": "string",
          "name": "encryptedEmail",
          "type": "string"
        },
        {
          "internalType": "string",
          "name": "encryptedPhone",
          "type": "string"
        },
        {
          "internalType": "string",
          "name": "encryptedAddress",
          "type": "string"
        },
        {
          "internalType": "string",
          "name": "encryptedRegNumber",
          "type": "string"
        },
        {
          "internalType": "string",
          "name": "encryptedAdminName",
          "type": "string"
        },
        {
          "internalType": "address",
          "name": "walletAddress",
          "type": "address"
        }
      ],
      "stateMutability": "view",
      "type": "function"
    },
    {
      "inputs": [
        {
          "internalType": "address",
          "name": "_wallet",
          "type": "address"
        }
      ],
      "name": "isWalletRegistered",
      "outputs": [
        {
          "internalType": "bool",
          "name": "",
          "type": "bool"
        }
      ],
      "stateMutability": "view",
      "type": "function"
    },
    {
      "inputs": [],
      "name": "name",
      "outputs": [
        {
          "internalType": "string",
          "name": "",
          "type": "string"
        }
      ],
      "stateMutability": "view",
      "type": "function"
    },
    {
      "inputs": [],
      "name": "owner",
      "outputs": [
        {
          "internalType": "address",
          "name": "",
          "type": "address"
        }
      ],
      "stateMutability": "view",
      "type": "function"
    },
    {
      "inputs": [
        {
          "internalType": "uint256",
          "name": "",
          "type": "uint256"
        }
      ],
      "name": "patientAddresses",
      "outputs": [
        {
          "internalType": "address",
          "name": "",
          "type": "address"
        }
      ],
      "stateMutability": "view",
      "type": "function"
    },
    {
      "inputs": [],
      "name": "patientCount",
      "outputs": [
        {
          "internalType": "uint256",
          "name": "",
          "type": "uint256"
        }
      ],
      "stateMutability": "view",
      "type": "function"
    },
    {
      "inputs": [
        {
          "internalType": "address",
          "name": "",
          "type": "address"
        }
      ],
      "name": "patientIds",
      "outputs": [
        {
          "internalType": "uint256",
          "name": "",
          "type": "uint256"
        }
      ],
      "stateMutability": "view",
      "type": "function"
    },
    {
      "inputs": [],
      "name": "personCount",
      "outputs": [
        {
          "internalType": "uint256",
          "name": "",
          "type": "uint256"
        }
      ],
      "stateMutability": "view",
      "type": "function"
    },
    {
      "inputs": [
        {
          "internalType": "address",
          "name": "",
          "type": "address"
        }
      ],
      "name": "persons",
      "outputs": [
        {
          "internalType": "uint256",
          "name": "id",
          "type": "uint256"
        },
        {
          "internalType": "address",
          "name": "walletAddress",
          "type": "address"
        },
        {
          "internalType": "enum HealthCare.Sex",
          "name": "sex",
          "type": "uint8"
        },
        {
          "internalType": "string",
          "name": "dob",
          "type": "string"
        },
        {
          "internalType": "uint256",
          "name": "age",
          "type": "uint256"
        },
        {
          "internalType": "string",
          "name": "workPhone",
          "type": "string"
        },
        {
          "internalType": "string",
          "name": "doctorName",
          "type": "string"
        },
        {
          "internalType": "string",
          "name": "appointmentReason",
          "type": "string"
        },
        {
          "internalType": "string",
          "name": "emergencyContact",
          "type": "string"
        },
        {
          "internalType": "string",
          "name": "emergencyPhone",
          "type": "string"
        },
        {
          "internalType": "string",
          "name": "ipfsHash",
          "type": "string"
        }
      ],
      "stateMutability": "view",
      "type": "function"
    },
    {
      "inputs": [
        {
          "internalType": "string",
          "name": "_name",
          "type": "string"
        },
        {
          "internalType": "string",
          "name": "_email",
          "type": "string"
        },
        {
          "internalType": "string",
          "name": "_phone",
          "type": "string"
        },
        {
          "internalType": "string",
          "name": "_address",
          "type": "string"
        },
        {
          "internalType": "string",
          "name": "_regNumber",
          "type": "string"
        },
        {
          "internalType": "string",
          "name": "_adminName",
          "type": "string"
        }
      ],
      "name": "registerHospital",
      "outputs": [],
      "stateMutability": "nonpayable",
      "type": "function"
    },
    {
      "inputs": [
        {
          "internalType": "enum HealthCare.Sex",
          "name": "_sex",
          "type": "uint8"
        },
        {
          "internalType": "string",
          "name": "_dob",
          "type": "string"
        },
        {
          "internalType": "uint256",
          "name": "_age",
          "type": "uint256"
        },
        {
          "internalType": "string",
          "name": "_workPhone",
          "type": "string"
        },
        {
          "internalType": "string",
          "name": "_doctorName",
          "type": "string"
        },
        {
          "internalType": "string",
          "name": "_appointmentReason",
          "type": "string"
        },
        {
          "internalType": "string",
          "name": "_emergencyContact",
          "type": "string"
        },
        {
          "internalType": "string",
          "name": "_emergencyPhone",
          "type": "string"
        }
      ],
      "name": "registerPerson",
      "outputs": [],
      "stateMutability": "nonpayable",
      "type": "function"
    },
    {
      "inputs": [],
      "name": "renounceOwnership",
      "outputs": [],
      "stateMutability": "nonpayable",
      "type": "function"
    },
    {
      "inputs": [],
      "name": "symbol",
      "outputs": [
        {
          "internalType": "string",
          "name": "",
          "type": "string"
        }
      ],
      "stateMutability": "view",
      "type": "function"
    },
    {
      "inputs": [],
      "name": "totalSupply",
      "outputs": [
        {
          "internalType": "uint256",
          "name": "",
          "type": "uint256"
        }
      ],
      "stateMutability": "view",
      "type": "function"
    },
    {
      "inputs": [
        {
          "internalType": "address",
          "name": "to",
          "type": "address"
        },
        {
          "internalType": "uint256",
          "name": "value",
          "type": "uint256"
        }
      ],
      "name": "transfer",
      "outputs": [
        {
          "internalType": "bool",
          "name": "",
          "type": "bool"
        }
      ],
      "stateMutability": "nonpayable",
      "type": "function"
    },
    {
      "inputs": [
        {
          "internalType": "address",
          "name": "from",
          "type": "address"
        },
        {
          "internalType": "address",
          "name": "to",
          "type": "address"
        },
        {
          "internalType": "uint256",
          "name": "value",
          "type": "uint256"
        }
      ],
      "name": "transferFrom",
      "outputs": [
        {
          "internalType": "bool",
          "name": "",
          "type": "bool"
        }
      ],
      "stateMutability": "nonpayable",
      "type": "function"
    },
    {
      "inputs": [
        {
          "internalType": "address",
          "name": "newOwner",
          "type": "address"
        }
      ],
      "name": "transferOwnership",
      "outputs": [],
      "stateMutability": "nonpayable",
      "type": "function"
    },
    {
      "inputs": [
        {
          "internalType": "address",
          "name": "",
          "type": "address"
        }
      ],
      "name": "userTypes",
      "outputs": [
        {
          "internalType": "enum HealthCare.UserType",
          "name": "",
          "type": "uint8"
        }
      ],
      "stateMutability": "view",
      "type": "function"
    }
  ],
  "bytecode": "0x60806040526001600b5534801561001557600080fd5b50336040518060400160405280600f81526020017f4865616c746843617265546f6b656e00000000000000000000000000000000008152506040518060400160405280600381526020017f48435400000000000000000000000000000000000000000000000000000000008152508160039081610092919061072f565b5080600490816100a2919061072f565b505050600073ffffffffffffffffffffffffffffffffffffffff168173ffffffffffffffffffffffffffffffffffffffff16036101175760006040517f1e4fbdf700000000000000000000000000000000000000000000000000000000815260040161010e9190610842565b60405180910390fd5b6101268161016360201b60201c565b5061015e3361013961022960201b60201c565b600a61014591906109cc565b620f42406101539190610a17565b61023260201b60201c565b610aee565b6000600560009054906101000a900473ffffffffffffffffffffffffffffffffffffffff16905081600560006101000a81548173ffffffffffffffffffffffffffffffffffffffff021916908373ffffffffffffffffffffffffffffffffffffffff1602179055508173ffffffffffffffffffffffffffffffffffffffff168173ffffffffffffffffffffffffffffffffffffffff167f8be0079c531659141344cd1fd0a4f28419497f9722a3daafe3b4186f6b6457e060405160405180910390a35050565b60006012905090565b600073ffffffffffffffffffffffffffffffffffffffff168273ffffffffffffffffffffffffffffffffffffffff16036102a45760006040517fec442f0500000000000000000000000000000000000000000000000000000000815260040161029b9190610842565b60405180910390fd5b6102b6600083836102ba60201b60201c565b5050565b600073ffffffffffffffffffffffffffffffffffffffff168373ffffffffffffffffffffffffffffffffffffffff160361030c5780600260008282546103009190610a59565b925050819055506103df565b60008060008573ffffffffffffffffffffffffffffffffffffffff1673ffffffffffffffffffffffffffffffffffffffff16815260200190815260200160002054905081811015610398578381836040517fe450d38c00000000000000000000000000000000000000000000000000000000815260040161038f93929190610a9c565b60405180910390fd5b8181036000808673ffffffffffffffffffffffffffffffffffffffff1673ffffffffffffffffffffffffffffffffffffffff16815260200190815260200160002081905550505b600073ffffffffffffffffffffffffffffffffffffffff168273ffffffffffffffffffffffffffffffffffffffff16036104285780600260008282540392505081905550610475565b806000808473ffffffffffffffffffffffffffffffffffffffff1673ffffffffffffffffffffffffffffffffffffffff168152602001908152602001600020600082825401925050819055505b8173ffffffffffffffffffffffffffffffffffffffff168373ffffffffffffffffffffffffffffffffffffffff167fddf252ad1be2c89b69c2b068fc378daa952ba7f163c4a11628f55a4df523b3ef836040516104d29190610ad3565b60405180910390a3505050565b600081519050919050565b7f4e487b7100000000000000000000000000000000000000000000000000000000600052604160045260246000fd5b7f4e487b7100000000000000000000000000000000000000000000000000000000600052602260045260246000fd5b6000600282049050600182168061056057607f821691505b60208210810361057357610572610519565b5b50919050565b60008190508160005260206000209050919050565b60006020601f8301049050919050565b600082821b905092915050565b6000600883026105db7fffffffffffffffffffffffffffffffffffffffffffffffffffffffffffffffff8261059e565b6105e5868361059e565b95508019841693508086168417925050509392505050565b6000819050919050565b6000819050919050565b600061062c610627610622846105fd565b610607565b6105fd565b9050919050565b6000819050919050565b61064683610611565b61065a61065282610633565b8484546105ab565b825550505050565b600090565b61066f610662565b61067a81848461063d565b505050565b5b8181101561069e57610693600082610667565b600181019050610680565b5050565b601f8211156106e3576106b481610579565b6106bd8461058e565b810160208510156106cc578190505b6106e06106d88561058e565b83018261067f565b50505b505050565b600082821c905092915050565b6000610706600019846008026106e8565b1980831691505092915050565b600061071f83836106f5565b9150826002028217905092915050565b610738826104df565b67ffffffffffffffff811115610751576107506104ea565b5b61075b8254610548565b6107668282856106a2565b600060209050601f8311600181146107995760008415610787578287015190505b6107918582610713565b8655506107f9565b601f1984166107a786610579565b60005b828110156107cf578489015182556001820191506020850194506020810190506107aa565b868310156107ec57848901516107e8601f8916826106f5565b8355505b6001600288020188555050505b505050505050565b600073ffffffffffffffffffffffffffffffffffffffff82169050919050565b600061082c82610801565b9050919050565b61083c81610821565b82525050565b60006020820190506108576000830184610833565b92915050565b7f4e487b7100000000000000000000000000000000000000000000000000000000600052601160045260246000fd5b60008160011c9050919050565b6000808291508390505b60018511156108e3578086048111156108bf576108be61085d565b5b60018516156108ce5780820291505b80810290506108dc8561088c565b94506108a3565b94509492505050565b6000826108fc57600190506109b8565b8161090a57600090506109b8565b8160018114610920576002811461092a57610959565b60019150506109b8565b60ff84111561093c5761093b61085d565b5b8360020a9150848211156109535761095261085d565b5b506109b8565b5060208310610133831016604e8410600b841016171561098e5782820a9050838111156109895761098861085d565b5b6109b8565b61099b8484846001610899565b925090508184048111156109b2576109b161085d565b5b81810290505b9392505050565b600060ff82169050919050565b60006109d7826105fd565b91506109e2836109bf565b9250610a0f7fffffffffffffffffffffffffffffffffffffffffffffffffffffffffffffffff84846108ec565b905092915050565b6000610a22826105fd565b9150610a2d836105fd565b9250828202610a3b816105fd565b91508282048414831517610a5257610a5161085d565b5b5092915050565b6000610a64826105fd565b9150610a6f836105fd565b9250828201905080821115610a8757610a8661085d565b5b92915050565b610a96816105fd565b82525050565b6000606082019050610ab16000830186610833565b610abe6020830185610a8d565b610acb6040830184610a8d565b949350505050565b6000602082019050610ae86000830184610a8d565b92915050565b61415e80610afd6000396000f3fe608060405234801561001057600080fd5b50600436106101a95760003560e01c80637f247e49116100f9578063a8e8c41511610097578063d1eb06ef11610071578063d1eb06ef1461051a578063dd62ed3e14610536578063f093cf8014610566578063f2fde38b1461059d576101a9565b8063a8e8c4151461049e578063a9059cbb146104ba578063b40f1691146104ea576101a9565b80638b3f863f116100d35780638b3f863f146104145780638da5cb5b1461044457806395d89b4114610462578063a0303c4114610480576101a9565b80637f247e491461037a57806387cd273c146103aa5780638ada2cf6146103da576101a9565b8063350dadb71161016657806367a36e0b1161014057806367a36e0b146102f257806370a0823114610322578063715018a61461035257806378495bf81461035c576101a9565b8063350dadb714610288578063389aec7f146102a6578063667f7ed2146102c2576101a9565b806306fdde03146101ae578063095ea7b3146101cc57806318160ddd146101fc57806318a231a91461021a57806323b872dd1461023a578063313ce5671461026a575b600080fd5b6101b66105b9565b6040516101c39190612c5e565b60405180910390f35b6101e660048036038101906101e19190612d28565b61064b565b6040516101f39190612d83565b60405180910390f35b61020461066e565b6040516102119190612dad565b60405180910390f35b610222610678565b60405161023193929190613050565b60405180910390f35b610254600480360381019061024f919061309c565b6109ef565b6040516102619190612d83565b60405180910390f35b610272610a1e565b60405161027f919061310b565b60405180910390f35b610290610a27565b60405161029d9190612dad565b60405180910390f35b6102c060048036038101906102bb919061325b565b610a2d565b005b6102dc60048036038101906102d79190613390565b610d0e565b6040516102e99190612dad565b60405180910390f35b61030c600480360381019061030791906133bd565b610d26565b6040516103199190612c5e565b60405180910390f35b61033c60048036038101906103379190613390565b611313565b6040516103499190612dad565b60405180910390f35b61035a61135b565b005b61036461136f565b6040516103719190612dad565b60405180910390f35b610394600480360381019061038f9190613390565b611375565b6040516103a19190612d83565b60405180910390f35b6103c460048036038101906103bf9190613390565b6113f2565b6040516103d19190613461565b60405180910390f35b6103f460048036038101906103ef9190613390565b611412565b60405161040b9b9a999897969594939291906134d3565b60405180910390f35b61042e60048036038101906104299190613390565b611851565b60405161043b9190613461565b60405180910390f35b61044c6118a7565b60405161045991906135af565b60405180910390f35b61046a6118d1565b6040516104779190612c5e565b60405180910390f35b610488611963565b6040516104959190612dad565b60405180910390f35b6104b860048036038101906104b391906135ca565b611969565b005b6104d460048036038101906104cf9190612d28565b611bfe565b6040516104e19190612d83565b60405180910390f35b61050460048036038101906104ff91906133bd565b611c21565b60405161051191906135af565b60405180910390f35b610534600480360381019061052f919061364b565b611c54565b005b610550600480360381019061054b91906137a9565b611fbb565b60405161055d9190612dad565b60405180910390f35b610580600480360381019061057b9190613390565b612042565b6040516105949897969594939291906137e9565b60405180910390f35b6105b760048036038101906105b29190613390565b6123da565b005b6060600380546105c8906138c0565b80601f01602080910402602001604051908101604052809291908181526020018280546105f4906138c0565b80156106415780601f1061061657610100808354040283529160200191610641565b820191906000526020600020905b81548152906001019060200180831161062457829003601f168201915b5050505050905090565b600080610656612460565b9050610663818585612468565b600191505092915050565b6000600254905090565b606080606060006001600b5461068e9190613920565b67ffffffffffffffff8111156106a7576106a6613130565b5b6040519080825280602002602001820160405280156106d55781602001602082028036833780820191505090505b50905060006001600b546106e99190613920565b67ffffffffffffffff81111561070257610701613130565b5b6040519080825280602002602001820160405280156107305781602001602082028036833780820191505090505b50905060006001600b546107449190613920565b67ffffffffffffffff81111561075d5761075c613130565b5b60405190808252806020026020018201604052801561079057816020015b606081526020019060019003908161077b5790505b5090506000600190505b600b548110156109dd5760006009600083815260200190815260200160002060009054906101000a900473ffffffffffffffffffffffffffffffffffffffff1690506002808111156107ef576107ee6133ea565b5b600860008373ffffffffffffffffffffffffffffffffffffffff1673ffffffffffffffffffffffffffffffffffffffff16815260200190815260200160002060009054906101000a900460ff16600281111561084e5761084d6133ea565b5b036109cf5781856001846108629190613920565b8151811061087357610872613954565b5b602002602001018181525050808460018461088e9190613920565b8151811061089f5761089e613954565b5b602002602001019073ffffffffffffffffffffffffffffffffffffffff16908173ffffffffffffffffffffffffffffffffffffffff1681525050600760008273ffffffffffffffffffffffffffffffffffffffff1673ffffffffffffffffffffffffffffffffffffffff1681526020019081526020016000206009018054610926906138c0565b80601f0160208091040260200160405190810160405280929190818152602001828054610952906138c0565b801561099f5780601f106109745761010080835404028352916020019161099f565b820191906000526020600020905b81548152906001019060200180831161098257829003601f168201915b5050505050836001846109b29190613920565b815181106109c3576109c2613954565b5b60200260200101819052505b50808060010191505061079a565b50828282955095509550505050909192565b6000806109fa612460565b9050610a0785828561247a565b610a1285858561250f565b60019150509392505050565b60006012905090565b600c5481565b60006002811115610a4157610a406133ea565b5b600860003373ffffffffffffffffffffffffffffffffffffffff1673ffffffffffffffffffffffffffffffffffffffff16815260200190815260200160002060009054906101000a900460ff166002811115610aa057610a9f6133ea565b5b14610ae0576040517f08c379a0000000000000000000000000000000000000000000000000000000008152600401610ad7906139cf565b60405180910390fd5b604051806101000160405280600c5481526020018781526020018681526020018581526020018481526020018381526020018281526020013373ffffffffffffffffffffffffffffffffffffffff16815250600660003373ffffffffffffffffffffffffffffffffffffffff1673ffffffffffffffffffffffffffffffffffffffff168152602001908152602001600020600082015181600001556020820151816001019081610b909190613b9b565b506040820151816002019081610ba69190613b9b565b506060820151816003019081610bbc9190613b9b565b506080820151816004019081610bd29190613b9b565b5060a0820151816005019081610be89190613b9b565b5060c0820151816006019081610bfe9190613b9b565b5060e08201518160070160006101000a81548173ffffffffffffffffffffffffffffffffffffffff021916908373ffffffffffffffffffffffffffffffffffffffff1602179055509050506001600860003373ffffffffffffffffffffffffffffffffffffffff1673ffffffffffffffffffffffffffffffffffffffff16815260200190815260200160002060006101000a81548160ff02191690836002811115610cac57610cab6133ea565b5b0217905550600c6000815480929190610cc490613c6d565b91905055507fbc26e9dd83eda23eaacac7e29ea9caabc2e3c1f68d6e6c2cbd7d4b2e5ff5a6f3600c548733604051610cfe93929190613cb5565b60405180910390a1505050505050565b600a6020528060005260406000206000915090505481565b606060006009600084815260200190815260200160002060009054906101000a900473ffffffffffffffffffffffffffffffffffffffff169050600280811115610d7357610d726133ea565b5b600860008373ffffffffffffffffffffffffffffffffffffffff1673ffffffffffffffffffffffffffffffffffffffff16815260200190815260200160002060009054906101000a900460ff166002811115610dd257610dd16133ea565b5b14610e12576040517f08c379a0000000000000000000000000000000000000000000000000000000008152600401610e0990613d3f565b60405180910390fd5b6000600760008373ffffffffffffffffffffffffffffffffffffffff1673ffffffffffffffffffffffffffffffffffffffff16815260200190815260200160002060405180610160016040529081600082015481526020016001820160009054906101000a900473ffffffffffffffffffffffffffffffffffffffff1673ffffffffffffffffffffffffffffffffffffffff1673ffffffffffffffffffffffffffffffffffffffff1681526020016001820160149054906101000a900460ff166002811115610ee457610ee36133ea565b5b6002811115610ef657610ef56133ea565b5b8152602001600282018054610f0a906138c0565b80601f0160208091040260200160405190810160405280929190818152602001828054610f36906138c0565b8015610f835780601f10610f5857610100808354040283529160200191610f83565b820191906000526020600020905b815481529060010190602001808311610f6657829003601f168201915b5050505050815260200160038201548152602001600482018054610fa6906138c0565b80601f0160208091040260200160405190810160405280929190818152602001828054610fd2906138c0565b801561101f5780601f10610ff45761010080835404028352916020019161101f565b820191906000526020600020905b81548152906001019060200180831161100257829003601f168201915b50505050508152602001600582018054611038906138c0565b80601f0160208091040260200160405190810160405280929190818152602001828054611064906138c0565b80156110b15780601f10611086576101008083540402835291602001916110b1565b820191906000526020600020905b81548152906001019060200180831161109457829003601f168201915b505050505081526020016006820180546110ca906138c0565b80601f01602080910402602001604051908101604052809291908181526020018280546110f6906138c0565b80156111435780601f1061111857610100808354040283529160200191611143565b820191906000526020600020905b81548152906001019060200180831161112657829003601f168201915b5050505050815260200160078201805461115c906138c0565b80601f0160208091040260200160405190810160405280929190818152602001828054611188906138c0565b80156111d55780601f106111aa576101008083540402835291602001916111d5565b820191906000526020600020905b8154815290600101906020018083116111b857829003601f168201915b505050505081526020016008820180546111ee906138c0565b80601f016020809104026020016040519081016040528092919081815260200182805461121a906138c0565b80156112675780601f1061123c57610100808354040283529160200191611267565b820191906000526020600020905b81548152906001019060200180831161124a57829003601f168201915b50505050508152602001600982018054611280906138c0565b80601f01602080910402602001604051908101604052809291908181526020018280546112ac906138c0565b80156112f95780601f106112ce576101008083540402835291602001916112f9565b820191906000526020600020905b8154815290600101906020018083116112dc57829003601f168201915b505050505081525050905080610140015192505050919050565b60008060008373ffffffffffffffffffffffffffffffffffffffff1673ffffffffffffffffffffffffffffffffffffffff168152602001908152602001600020549050919050565b611363612603565b61136d600061268a565b565b600d5481565b600080600281111561138a576113896133ea565b5b600860008473ffffffffffffffffffffffffffffffffffffffff1673ffffffffffffffffffffffffffffffffffffffff16815260200190815260200160002060009054906101000a900460ff1660028111156113e9576113e86133ea565b5b14159050919050565b60086020528060005260406000206000915054906101000a900460ff1681565b60076020528060005260406000206000915090508060000154908060010160009054906101000a900473ffffffffffffffffffffffffffffffffffffffff16908060010160149054906101000a900460ff1690806002018054611474906138c0565b80601f01602080910402602001604051908101604052809291908181526020018280546114a0906138c0565b80156114ed5780601f106114c2576101008083540402835291602001916114ed565b820191906000526020600020905b8154815290600101906020018083116114d057829003601f168201915b505050505090806003015490806004018054611508906138c0565b80601f0160208091040260200160405190810160405280929190818152602001828054611534906138c0565b80156115815780601f1061155657610100808354040283529160200191611581565b820191906000526020600020905b81548152906001019060200180831161156457829003601f168201915b505050505090806005018054611596906138c0565b80601f01602080910402602001604051908101604052809291908181526020018280546115c2906138c0565b801561160f5780601f106115e45761010080835404028352916020019161160f565b820191906000526020600020905b8154815290600101906020018083116115f257829003601f168201915b505050505090806006018054611624906138c0565b80601f0160208091040260200160405190810160405280929190818152602001828054611650906138c0565b801561169d5780601f106116725761010080835404028352916020019161169d565b820191906000526020600020905b81548152906001019060200180831161168057829003601f168201915b5050505050908060070180546116b2906138c0565b80601f01602080910402602001604051908101604052809291908181526020018280546116de906138c0565b801561172b5780601f106117005761010080835404028352916020019161172b565b820191906000526020600020905b81548152906001019060200180831161170e57829003601f168201915b505050505090806008018054611740906138c0565b80601f016020809104026020016040519081016040528092919081815260200182805461176c906138c0565b80156117b95780601f1061178e576101008083540402835291602001916117b9565b820191906000526020600020905b81548152906001019060200180831161179c57829003601f168201915b5050505050908060090180546117ce906138c0565b80601f01602080910402602001604051908101604052809291908181526020018280546117fa906138c0565b80156118475780601f1061181c57610100808354040283529160200191611847565b820191906000526020600020905b81548152906001019060200180831161182a57829003601f168201915b505050505090508b565b6000600860008373ffffffffffffffffffffffffffffffffffffffff1673ffffffffffffffffffffffffffffffffffffffff16815260200190815260200160002060009054906101000a900460ff169050919050565b6000600560009054906101000a900473ffffffffffffffffffffffffffffffffffffffff16905090565b6060600480546118e0906138c0565b80601f016020809104026020016040519081016040528092919081815260200182805461190c906138c0565b80156119595780601f1061192e57610100808354040283529160200191611959565b820191906000526020600020905b81548152906001019060200180831161193c57829003601f168201915b5050505050905090565b600b5481565b6001600281111561197d5761197c6133ea565b5b600860003373ffffffffffffffffffffffffffffffffffffffff1673ffffffffffffffffffffffffffffffffffffffff16815260200190815260200160002060009054906101000a900460ff1660028111156119dc576119db6133ea565b5b14611a1c576040517f08c379a0000000000000000000000000000000000000000000000000000000008152600401611a1390613dd1565b60405180910390fd5b600280811115611a2f57611a2e6133ea565b5b600860008473ffffffffffffffffffffffffffffffffffffffff1673ffffffffffffffffffffffffffffffffffffffff16815260200190815260200160002060009054906101000a900460ff166002811115611a8e57611a8d6133ea565b5b14611ace576040517f08c379a0000000000000000000000000000000000000000000000000000000008152600401611ac590613e3d565b60405180910390fd5b6000600b549050826009600083815260200190815260200160002060006101000a81548173ffffffffffffffffffffffffffffffffffffffff021916908373ffffffffffffffffffffffffffffffffffffffff16021790555081600760008573ffffffffffffffffffffffffffffffffffffffff1673ffffffffffffffffffffffffffffffffffffffff1681526020019081526020016000206009019081611b769190613b9b565b50600b6000815480929190611b8a90613c6d565b91905055506000611b99610a1e565b600a611ba59190613f90565b6064611bb19190613fdb565b9050611bbd3382612750565b7f499d8101435709bc591d18d3211d2fc5e10703aaad0840b23a7bf47f988d82ad828585604051611bf09392919061401d565b60405180910390a150505050565b600080611c09612460565b9050611c1681858561250f565b600191505092915050565b60096020528060005260406000206000915054906101000a900473ffffffffffffffffffffffffffffffffffffffff1681565b60006002811115611c6857611c676133ea565b5b600860003373ffffffffffffffffffffffffffffffffffffffff1673ffffffffffffffffffffffffffffffffffffffff16815260200190815260200160002060009054906101000a900460ff166002811115611cc757611cc66133ea565b5b14611d07576040517f08c379a0000000000000000000000000000000000000000000000000000000008152600401611cfe906139cf565b60405180910390fd5b604051806101600160405280600d5481526020013373ffffffffffffffffffffffffffffffffffffffff168152602001896002811115611d4a57611d496133ea565b5b815260200188815260200187815260200186815260200185815260200184815260200183815260200182815260200160405180602001604052806000815250815250600760003373ffffffffffffffffffffffffffffffffffffffff1673ffffffffffffffffffffffffffffffffffffffff1681526020019081526020016000206000820151816000015560208201518160010160006101000a81548173ffffffffffffffffffffffffffffffffffffffff021916908373ffffffffffffffffffffffffffffffffffffffff16021790555060408201518160010160146101000a81548160ff02191690836002811115611e4757611e466133ea565b5b02179055506060820151816002019081611e619190613b9b565b506080820151816003015560a0820151816004019081611e819190613b9b565b5060c0820151816005019081611e979190613b9b565b5060e0820151816006019081611ead9190613b9b565b50610100820151816007019081611ec49190613b9b565b50610120820151816008019081611edb9190613b9b565b50610140820151816009019081611ef29190613b9b565b509050506002600860003373ffffffffffffffffffffffffffffffffffffffff1673ffffffffffffffffffffffffffffffffffffffff16815260200190815260200160002060006101000a81548160ff02191690836002811115611f5957611f586133ea565b5b0217905550600d6000815480929190611f7190613c6d565b91905055507f499d8101435709bc591d18d3211d2fc5e10703aaad0840b23a7bf47f988d82ad600d5433604051611fa9929190614081565b60405180910390a15050505050505050565b6000600160008473ffffffffffffffffffffffffffffffffffffffff1673ffffffffffffffffffffffffffffffffffffffff16815260200190815260200160002060008373ffffffffffffffffffffffffffffffffffffffff1673ffffffffffffffffffffffffffffffffffffffff16815260200190815260200160002054905092915050565b600660205280600052604060002060009150905080600001549080600101805461206b906138c0565b80601f0160208091040260200160405190810160405280929190818152602001828054612097906138c0565b80156120e45780601f106120b9576101008083540402835291602001916120e4565b820191906000526020600020905b8154815290600101906020018083116120c757829003601f168201915b5050505050908060020180546120f9906138c0565b80601f0160208091040260200160405190810160405280929190818152602001828054612125906138c0565b80156121725780601f1061214757610100808354040283529160200191612172565b820191906000526020600020905b81548152906001019060200180831161215557829003601f168201915b505050505090806003018054612187906138c0565b80601f01602080910402602001604051908101604052809291908181526020018280546121b3906138c0565b80156122005780601f106121d557610100808354040283529160200191612200565b820191906000526020600020905b8154815290600101906020018083116121e357829003601f168201915b505050505090806004018054612215906138c0565b80601f0160208091040260200160405190810160405280929190818152602001828054612241906138c0565b801561228e5780601f106122635761010080835404028352916020019161228e565b820191906000526020600020905b81548152906001019060200180831161227157829003601f168201915b5050505050908060050180546122a3906138c0565b80601f01602080910402602001604051908101604052809291908181526020018280546122cf906138c0565b801561231c5780601f106122f15761010080835404028352916020019161231c565b820191906000526020600020905b8154815290600101906020018083116122ff57829003601f168201915b505050505090806006018054612331906138c0565b80601f016020809104026020016040519081016040528092919081815260200182805461235d906138c0565b80156123aa5780601f1061237f576101008083540402835291602001916123aa565b820191906000526020600020905b81548152906001019060200180831161238d57829003601f168201915b5050505050908060070160009054906101000a900473ffffffffffffffffffffffffffffffffffffffff16905088565b6123e2612603565b600073ffffffffffffffffffffffffffffffffffffffff168173ffffffffffffffffffffffffffffffffffffffff16036124545760006040517f1e4fbdf700000000000000000000000000000000000000000000000000000000815260040161244b91906135af565b60405180910390fd5b61245d8161268a565b50565b600033905090565b61247583838360016127d2565b505050565b60006124868484611fbb565b90507fffffffffffffffffffffffffffffffffffffffffffffffffffffffffffffffff81101561250957818110156124f9578281836040517ffb8f41b20000000000000000000000000000000000000000000000000000000081526004016124f0939291906140bd565b60405180910390fd5b612508848484840360006127d2565b5b50505050565b600073ffffffffffffffffffffffffffffffffffffffff168373ffffffffffffffffffffffffffffffffffffffff16036125815760006040517f96c6fd1e00000000000000000000000000000000000000000000000000000000815260040161257891906135af565b60405180910390fd5b600073ffffffffffffffffffffffffffffffffffffffff168273ffffffffffffffffffffffffffffffffffffffff16036125f35760006040517fec442f050000000000000000000000000000000000000000000000000000000081526004016125ea91906135af565b60405180910390fd5b6125fe8383836129a9565b505050565b61260b612460565b73ffffffffffffffffffffffffffffffffffffffff166126296118a7565b73ffffffffffffffffffffffffffffffffffffffff16146126885761264c612460565b6040517f118cdaa700000000000000000000000000000000000000000000000000000000815260040161267f91906135af565b60405180910390fd5b565b6000600560009054906101000a900473ffffffffffffffffffffffffffffffffffffffff16905081600560006101000a81548173ffffffffffffffffffffffffffffffffffffffff021916908373ffffffffffffffffffffffffffffffffffffffff1602179055508173ffffffffffffffffffffffffffffffffffffffff168173ffffffffffffffffffffffffffffffffffffffff167f8be0079c531659141344cd1fd0a4f28419497f9722a3daafe3b4186f6b6457e060405160405180910390a35050565b600073ffffffffffffffffffffffffffffffffffffffff168273ffffffffffffffffffffffffffffffffffffffff16036127c25760006040517fec442f050000000000000000000000000000000000000000000000000000000081526004016127b991906135af565b60405180910390fd5b6127ce600083836129a9565b5050565b600073ffffffffffffffffffffffffffffffffffffffff168473ffffffffffffffffffffffffffffffffffffffff16036128445760006040517fe602df0500000000000000000000000000000000000000000000000000000000815260040161283b91906135af565b60405180910390fd5b600073ffffffffffffffffffffffffffffffffffffffff168373ffffffffffffffffffffffffffffffffffffffff16036128b65760006040517f94280d620000000000000000000000000000000000000000000000000000000081526004016128ad91906135af565b60405180910390fd5b81600160008673ffffffffffffffffffffffffffffffffffffffff1673ffffffffffffffffffffffffffffffffffffffff16815260200190815260200160002060008573ffffffffffffffffffffffffffffffffffffffff1673ffffffffffffffffffffffffffffffffffffffff1681526020019081526020016000208190555080156129a3578273ffffffffffffffffffffffffffffffffffffffff168473ffffffffffffffffffffffffffffffffffffffff167f8c5be1e5ebec7d5bd14f71427d1e84f3dd0314c0f7b2291e5b200ac8c7c3b9258460405161299a9190612dad565b60405180910390a35b50505050565b600073ffffffffffffffffffffffffffffffffffffffff168373ffffffffffffffffffffffffffffffffffffffff16036129fb5780600260008282546129ef91906140f4565b92505081905550612ace565b60008060008573ffffffffffffffffffffffffffffffffffffffff1673ffffffffffffffffffffffffffffffffffffffff16815260200190815260200160002054905081811015612a87578381836040517fe450d38c000000000000000000000000000000000000000000000000000000008152600401612a7e939291906140bd565b60405180910390fd5b8181036000808673ffffffffffffffffffffffffffffffffffffffff1673ffffffffffffffffffffffffffffffffffffffff16815260200190815260200160002081905550505b600073ffffffffffffffffffffffffffffffffffffffff168273ffffffffffffffffffffffffffffffffffffffff1603612b175780600260008282540392505081905550612b64565b806000808473ffffffffffffffffffffffffffffffffffffffff1673ffffffffffffffffffffffffffffffffffffffff168152602001908152602001600020600082825401925050819055505b8173ffffffffffffffffffffffffffffffffffffffff168373ffffffffffffffffffffffffffffffffffffffff167fddf252ad1be2c89b69c2b068fc378daa952ba7f163c4a11628f55a4df523b3ef83604051612bc19190612dad565b60405180910390a3505050565b600081519050919050565b600082825260208201905092915050565b60005b83811015612c08578082015181840152602081019050612bed565b60008484015250505050565b6000601f19601f8301169050919050565b6000612c3082612bce565b612c3a8185612bd9565b9350612c4a818560208601612bea565b612c5381612c14565b840191505092915050565b60006020820190508181036000830152612c788184612c25565b905092915050565b6000604051905090565b600080fd5b600080fd5b600073ffffffffffffffffffffffffffffffffffffffff82169050919050565b6000612cbf82612c94565b9050919050565b612ccf81612cb4565b8114612cda57600080fd5b50565b600081359050612cec81612cc6565b92915050565b6000819050919050565b612d0581612cf2565b8114612d1057600080fd5b50565b600081359050612d2281612cfc565b92915050565b60008060408385031215612d3f57612d3e612c8a565b5b6000612d4d85828601612cdd565b9250506020612d5e85828601612d13565b9150509250929050565b60008115159050919050565b612d7d81612d68565b82525050565b6000602082019050612d986000830184612d74565b92915050565b612da781612cf2565b82525050565b6000602082019050612dc26000830184612d9e565b92915050565b600081519050919050565b600082825260208201905092915050565b6000819050602082019050919050565b612dfd81612cf2565b82525050565b6000612e0f8383612df4565b60208301905092915050565b6000602082019050919050565b6000612e3382612dc8565b612e3d8185612dd3565b9350612e4883612de4565b8060005b83811015612e79578151612e608882612e03565b9750612e6b83612e1b565b925050600181019050612e4c565b5085935050505092915050565b600081519050919050565b600082825260208201905092915050565b6000819050602082019050919050565b612ebb81612cb4565b82525050565b6000612ecd8383612eb2565b60208301905092915050565b6000602082019050919050565b6000612ef182612e86565b612efb8185612e91565b9350612f0683612ea2565b8060005b83811015612f37578151612f1e8882612ec1565b9750612f2983612ed9565b925050600181019050612f0a565b5085935050505092915050565b600081519050919050565b600082825260208201905092915050565b6000819050602082019050919050565b600082825260208201905092915050565b6000612f8c82612bce565b612f968185612f70565b9350612fa6818560208601612bea565b612faf81612c14565b840191505092915050565b6000612fc68383612f81565b905092915050565b6000602082019050919050565b6000612fe682612f44565b612ff08185612f4f565b93508360208202850161300285612f60565b8060005b8581101561303e578484038952815161301f8582612fba565b945061302a83612fce565b925060208a01995050600181019050613006565b50829750879550505050505092915050565b6000606082019050818103600083015261306a8186612e28565b9050818103602083015261307e8185612ee6565b905081810360408301526130928184612fdb565b9050949350505050565b6000806000606084860312156130b5576130b4612c8a565b5b60006130c386828701612cdd565b93505060206130d486828701612cdd565b92505060406130e586828701612d13565b9150509250925092565b600060ff82169050919050565b613105816130ef565b82525050565b600060208201905061312060008301846130fc565b92915050565b600080fd5b600080fd5b7f4e487b7100000000000000000000000000000000000000000000000000000000600052604160045260246000fd5b61316882612c14565b810181811067ffffffffffffffff8211171561318757613186613130565b5b80604052505050565b600061319a612c80565b90506131a6828261315f565b919050565b600067ffffffffffffffff8211156131c6576131c5613130565b5b6131cf82612c14565b9050602081019050919050565b82818337600083830152505050565b60006131fe6131f9846131ab565b613190565b90508281526020810184848401111561321a5761321961312b565b5b6132258482856131dc565b509392505050565b600082601f83011261324257613241613126565b5b81356132528482602086016131eb565b91505092915050565b60008060008060008060c0878903121561327857613277612c8a565b5b600087013567ffffffffffffffff81111561329657613295612c8f565b5b6132a289828a0161322d565b965050602087013567ffffffffffffffff8111156132c3576132c2612c8f565b5b6132cf89828a0161322d565b955050604087013567ffffffffffffffff8111156132f0576132ef612c8f565b5b6132fc89828a0161322d565b945050606087013567ffffffffffffffff81111561331d5761331c612c8f565b5b61332989828a0161322d565b935050608087013567ffffffffffffffff81111561334a57613349612c8f565b5b61335689828a0161322d565b92505060a087013567ffffffffffffffff81111561337757613376612c8f565b5b61338389828a0161322d565b9150509295509295509295565b6000602082840312156133a6576133a5612c8a565b5b60006133b484828501612cdd565b91505092915050565b6000602082840312156133d3576133d2612c8a565b5b60006133e184828501612d13565b91505092915050565b7f4e487b7100000000000000000000000000000000000000000000000000000000600052602160045260246000fd5b6003811061342a576134296133ea565b5b50565b600081905061343b82613419565b919050565b600061344b8261342d565b9050919050565b61345b81613440565b82525050565b60006020820190506134766000830184613452565b92915050565b61348581612cb4565b82525050565b6003811061349c5761349b6133ea565b5b50565b60008190506134ad8261348b565b919050565b60006134bd8261349f565b9050919050565b6134cd816134b2565b82525050565b6000610160820190506134e9600083018e612d9e565b6134f6602083018d61347c565b613503604083018c6134c4565b8181036060830152613515818b612c25565b9050613524608083018a612d9e565b81810360a08301526135368189612c25565b905081810360c083015261354a8188612c25565b905081810360e083015261355e8187612c25565b90508181036101008301526135738186612c25565b90508181036101208301526135888185612c25565b905081810361014083015261359d8184612c25565b90509c9b505050505050505050505050565b60006020820190506135c4600083018461347c565b92915050565b600080604083850312156135e1576135e0612c8a565b5b60006135ef85828601612cdd565b925050602083013567ffffffffffffffff8111156136105761360f612c8f565b5b61361c8582860161322d565b9150509250929050565b6003811061363357600080fd5b50565b60008135905061364581613626565b92915050565b600080600080600080600080610100898b03121561366c5761366b612c8a565b5b600061367a8b828c01613636565b985050602089013567ffffffffffffffff81111561369b5761369a612c8f565b5b6136a78b828c0161322d565b97505060406136b88b828c01612d13565b965050606089013567ffffffffffffffff8111156136d9576136d8612c8f565b5b6136e58b828c0161322d565b955050608089013567ffffffffffffffff81111561370657613705612c8f565b5b6137128b828c0161322d565b94505060a089013567ffffffffffffffff81111561373357613732612c8f565b5b61373f8b828c0161322d565b93505060c089013567ffffffffffffffff8111156137605761375f612c8f565b5b61376c8b828c0161322d565b92505060e089013567ffffffffffffffff81111561378d5761378c612c8f565b5b6137998b828c0161322d565b9150509295985092959890939650565b600080604083850312156137c0576137bf612c8a565b5b60006137ce85828601612cdd565b92505060206137df85828601612cdd565b9150509250929050565b6000610100820190506137ff600083018b612d9e565b8181036020830152613811818a612c25565b905081810360408301526138258189612c25565b905081810360608301526138398188612c25565b9050818103608083015261384d8187612c25565b905081810360a08301526138618186612c25565b905081810360c08301526138758185612c25565b905061388460e083018461347c565b9998505050505050505050565b7f4e487b7100000000000000000000000000000000000000000000000000000000600052602260045260246000fd5b600060028204905060018216806138d857607f821691505b6020821081036138eb576138ea613891565b5b50919050565b7f4e487b7100000000000000000000000000000000000000000000000000000000600052601160045260246000fd5b600061392b82612cf2565b915061393683612cf2565b925082820390508181111561394e5761394d6138f1565b5b92915050565b7f4e487b7100000000000000000000000000000000000000000000000000000000600052603260045260246000fd5b7f416c726561647920726567697374657265642100000000000000000000000000600082015250565b60006139b9601383612bd9565b91506139c482613983565b602082019050919050565b600060208201905081810360008301526139e8816139ac565b9050919050565b60008190508160005260206000209050919050565b60006020601f8301049050919050565b600082821b905092915050565b600060088302613a517fffffffffffffffffffffffffffffffffffffffffffffffffffffffffffffffff82613a14565b613a5b8683613a14565b95508019841693508086168417925050509392505050565b6000819050919050565b6000613a98613a93613a8e84612cf2565b613a73565b612cf2565b9050919050565b6000819050919050565b613ab283613a7d565b613ac6613abe82613a9f565b848454613a21565b825550505050565b600090565b613adb613ace565b613ae6818484613aa9565b505050565b5b81811015613b0a57613aff600082613ad3565b600181019050613aec565b5050565b601f821115613b4f57613b20816139ef565b613b2984613a04565b81016020851015613b38578190505b613b4c613b4485613a04565b830182613aeb565b50505b505050565b600082821c905092915050565b6000613b7260001984600802613b54565b1980831691505092915050565b6000613b8b8383613b61565b9150826002028217905092915050565b613ba482612bce565b67ffffffffffffffff811115613bbd57613bbc613130565b5b613bc782546138c0565b613bd2828285613b0e565b600060209050601f831160018114613c055760008415613bf3578287015190505b613bfd8582613b7f565b865550613c65565b601f198416613c13866139ef565b60005b82811015613c3b57848901518255600182019150602085019450602081019050613c16565b86831015613c585784890151613c54601f891682613b61565b8355505b6001600288020188555050505b505050505050565b6000613c7882612cf2565b91507fffffffffffffffffffffffffffffffffffffffffffffffffffffffffffffffff8203613caa57613ca96138f1565b5b600182019050919050565b6000606082019050613cca6000830186612d9e565b8181036020830152613cdc8185612c25565b9050613ceb604083018461347c565b949350505050565b7f50617469656e7420646f6573206e6f7420657869737421000000000000000000600082015250565b6000613d29601783612bd9565b9150613d3482613cf3565b602082019050919050565b60006020820190508181036000830152613d5881613d1c565b9050919050565b7f4f6e6c7920686f73706974616c732063616e206164642070617469656e74206460008201527f657461696c732100000000000000000000000000000000000000000000000000602082015250565b6000613dbb602783612bd9565b9150613dc682613d5f565b604082019050919050565b60006020820190508181036000830152613dea81613dae565b9050919050565b7f50617469656e74206d7573742062652072656769737465726564210000000000600082015250565b6000613e27601b83612bd9565b9150613e3282613df1565b602082019050919050565b60006020820190508181036000830152613e5681613e1a565b9050919050565b60008160011c9050919050565b6000808291508390505b6001851115613eb457808604811115613e9057613e8f6138f1565b5b6001851615613e9f5780820291505b8081029050613ead85613e5d565b9450613e74565b94509492505050565b600082613ecd5760019050613f89565b81613edb5760009050613f89565b8160018114613ef15760028114613efb57613f2a565b6001915050613f89565b60ff841115613f0d57613f0c6138f1565b5b8360020a915084821115613f2457613f236138f1565b5b50613f89565b5060208310610133831016604e8410600b8410161715613f5f5782820a905083811115613f5a57613f596138f1565b5b613f89565b613f6c8484846001613e6a565b92509050818404811115613f8357613f826138f1565b5b81810290505b9392505050565b6000613f9b82612cf2565b9150613fa6836130ef565b9250613fd37fffffffffffffffffffffffffffffffffffffffffffffffffffffffffffffffff8484613ebd565b905092915050565b6000613fe682612cf2565b9150613ff183612cf2565b9250828202613fff81612cf2565b91508282048414831517614016576140156138f1565b5b5092915050565b60006060820190506140326000830186612d9e565b61403f602083018561347c565b81810360408301526140518184612c25565b9050949350505050565b50565b600061406b600083612bd9565b91506140768261405b565b600082019050919050565b60006060820190506140966000830185612d9e565b6140a3602083018461347c565b81810360408301526140b48161405e565b90509392505050565b60006060820190506140d2600083018661347c565b6140df6020830185612d9e565b6140ec6040830184612d9e565b949350505050565b60006140ff82612cf2565b915061410a83612cf2565b9250828201905080821115614122576141216138f1565b5b9291505056fea2646970667358221220c48734642bd45b65c4e53c939361e6100fdc28125a799af3cfd5ccb7a4c7cf7064736f6c634300081c0033",
  "linkReferences": {},
  "deployedLinkReferences": {}
}