{
  "_format": "hh-sol-artifact-1",
  "contractName": "HealthCare",
  "sourceName": "contracts/PatientRecords.sol",
  "abi": [
    {
      "inputs": [],
      "stateMutability": "nonpayable",
      "type": "constructor"
    },
    {
      "inputs": [
        {
          "internalType": "address",
          "name": "spender",
          "type": "address"
        },
        {
          "internalType": "uint256",
          "name": "allowance",
          "type": "uint256"
        },
        {
          "internalType": "uint256",
          "name": "needed",
          "type": "uint256"
        }
      ],
      "name": "ERC20InsufficientAllowance",
      "type": "error"
    },
    {
      "inputs": [
        {
          "internalType": "address",
          "name": "sender",
          "type": "address"
        },
        {
          "internalType": "uint256",
          "name": "balance",
          "type": "uint256"
        },
        {
          "internalType": "uint256",
          "name": "needed",
          "type": "uint256"
        }
      ],
      "name": "ERC20InsufficientBalance",
      "type": "error"
    },
    {
      "inputs": [
        {
          "internalType": "address",
          "name": "approver",
          "type": "address"
        }
      ],
      "name": "ERC20InvalidApprover",
      "type": "error"
    },
    {
      "inputs": [
        {
          "internalType": "address",
          "name": "receiver",
          "type": "address"
        }
      ],
      "name": "ERC20InvalidReceiver",
      "type": "error"
    },
    {
      "inputs": [
        {
          "internalType": "address",
          "name": "sender",
          "type": "address"
        }
      ],
      "name": "ERC20InvalidSender",
      "type": "error"
    },
    {
      "inputs": [
        {
          "internalType": "address",
          "name": "spender",
          "type": "address"
        }
      ],
      "name": "ERC20InvalidSpender",
      "type": "error"
    },
    {
      "inputs": [
        {
          "internalType": "address",
          "name": "owner",
          "type": "address"
        }
      ],
      "name": "OwnableInvalidOwner",
      "type": "error"
    },
    {
      "inputs": [
        {
          "internalType": "address",
          "name": "account",
          "type": "address"
        }
      ],
      "name": "OwnableUnauthorizedAccount",
      "type": "error"
    },
    {
      "anonymous": false,
      "inputs": [
        {
          "indexed": true,
          "internalType": "address",
          "name": "owner",
          "type": "address"
        },
        {
          "indexed": true,
          "internalType": "address",
          "name": "spender",
          "type": "address"
        },
        {
          "indexed": false,
          "internalType": "uint256",
          "name": "value",
          "type": "uint256"
        }
      ],
      "name": "Approval",
      "type": "event"
    },
    {
      "anonymous": false,
      "inputs": [
        {
          "indexed": false,
          "internalType": "uint256",
          "name": "id",
          "type": "uint256"
        },
        {
          "indexed": false,
          "internalType": "string",
          "name": "encryptedName",
          "type": "string"
        },
        {
          "indexed": false,
          "internalType": "address",
          "name": "walletAddress",
          "type": "address"
        }
      ],
      "name": "HospitalRegistered",
      "type": "event"
    },
    {
      "anonymous": false,
      "inputs": [
        {
          "indexed": true,
          "internalType": "address",
          "name": "previousOwner",
          "type": "address"
        },
        {
          "indexed": true,
          "internalType": "address",
          "name": "newOwner",
          "type": "address"
        }
      ],
      "name": "OwnershipTransferred",
      "type": "event"
    },
    {
      "anonymous": false,
      "inputs": [
        {
          "indexed": false,
          "internalType": "uint256",
          "name": "id",
          "type": "uint256"
        },
        {
          "indexed": false,
          "internalType": "string",
          "name": "encryptedName",
          "type": "string"
        },
        {
          "indexed": false,
          "internalType": "address",
          "name": "walletAddress",
          "type": "address"
        }
      ],
      "name": "PersonRegistered",
      "type": "event"
    },
    {
      "anonymous": false,
      "inputs": [
        {
          "indexed": true,
          "internalType": "address",
          "name": "from",
          "type": "address"
        },
        {
          "indexed": true,
          "internalType": "address",
          "name": "to",
          "type": "address"
        },
        {
          "indexed": false,
          "internalType": "uint256",
          "name": "value",
          "type": "uint256"
        }
      ],
      "name": "Transfer",
      "type": "event"
    },
    {
      "inputs": [
        {
          "internalType": "string",
          "name": "_name",
          "type": "string"
        },
        {
          "internalType": "string",
          "name": "_email",
          "type": "string"
        },
        {
          "internalType": "string",
          "name": "_phone",
          "type": "string"
        },
        {
          "internalType": "string",
          "name": "_address",
          "type": "string"
        },
        {
          "internalType": "enum HealthCare.Sex",
          "name": "_sex",
          "type": "uint8"
        }
      ],
      "name": "addPatientDetails",
      "outputs": [],
      "stateMutability": "nonpayable",
      "type": "function"
    },
    {
      "inputs": [
        {
          "internalType": "address",
          "name": "owner",
          "type": "address"
        },
        {
          "internalType": "address",
          "name": "spender",
          "type": "address"
        }
      ],
      "name": "allowance",
      "outputs": [
        {
          "internalType": "uint256",
          "name": "",
          "type": "uint256"
        }
      ],
      "stateMutability": "view",
      "type": "function"
    },
    {
      "inputs": [
        {
          "internalType": "address",
          "name": "spender",
          "type": "address"
        },
        {
          "internalType": "uint256",
          "name": "value",
          "type": "uint256"
        }
      ],
      "name": "approve",
      "outputs": [
        {
          "internalType": "bool",
          "name": "",
          "type": "bool"
        }
      ],
      "stateMutability": "nonpayable",
      "type": "function"
    },
    {
      "inputs": [
        {
          "internalType": "address",
          "name": "account",
          "type": "address"
        }
      ],
      "name": "balanceOf",
      "outputs": [
        {
          "internalType": "uint256",
          "name": "",
          "type": "uint256"
        }
      ],
      "stateMutability": "view",
      "type": "function"
    },
    {
      "inputs": [],
      "name": "decimals",
      "outputs": [
        {
          "internalType": "uint8",
          "name": "",
          "type": "uint8"
        }
      ],
      "stateMutability": "view",
      "type": "function"
    },
    {
      "inputs": [],
      "name": "getAllPatients",
      "outputs": [
        {
          "internalType": "uint256[]",
          "name": "",
          "type": "uint256[]"
        },
        {
          "internalType": "string[]",
          "name": "",
          "type": "string[]"
        }
      ],
      "stateMutability": "view",
      "type": "function"
    },
    {
      "inputs": [
        {
          "internalType": "address",
          "name": "_wallet",
          "type": "address"
        }
      ],
      "name": "getUserType",
      "outputs": [
        {
          "internalType": "enum HealthCare.UserType",
          "name": "",
          "type": "uint8"
        }
      ],
      "stateMutability": "view",
      "type": "function"
    },
    {
      "inputs": [],
      "name": "hospitalCount",
      "outputs": [
        {
          "internalType": "uint256",
          "name": "",
          "type": "uint256"
        }
      ],
      "stateMutability": "view",
      "type": "function"
    },
    {
      "inputs": [
        {
          "internalType": "address",
          "name": "",
          "type": "address"
        }
      ],
      "name": "hospitals",
      "outputs": [
        {
          "internalType": "uint256",
          "name": "id",
          "type": "uint256"
        },
        {
          "internalType": "string",
          "name": "encryptedName",
          "type": "string"
        },
        {
          "internalType": "string",
          "name": "encryptedEmail",
          "type": "string"
        },
        {
          "internalType": "string",
          "name": "encryptedPhone",
          "type": "string"
        },
        {
          "internalType": "string",
          "name": "encryptedAddress",
          "type": "string"
        },
        {
          "internalType": "string",
          "name": "encryptedRegNumber",
          "type": "string"
        },
        {
          "internalType": "string",
          "name": "encryptedAdminName",
          "type": "string"
        },
        {
          "internalType": "address",
          "name": "walletAddress",
          "type": "address"
        }
      ],
      "stateMutability": "view",
      "type": "function"
    },
    {
      "inputs": [
        {
          "internalType": "address",
          "name": "_wallet",
          "type": "address"
        }
      ],
      "name": "isWalletRegistered",
      "outputs": [
        {
          "internalType": "bool",
          "name": "",
          "type": "bool"
        }
      ],
      "stateMutability": "view",
      "type": "function"
    },
    {
      "inputs": [],
      "name": "name",
      "outputs": [
        {
          "internalType": "string",
          "name": "",
          "type": "string"
        }
      ],
      "stateMutability": "view",
      "type": "function"
    },
    {
      "inputs": [],
      "name": "owner",
      "outputs": [
        {
          "internalType": "address",
          "name": "",
          "type": "address"
        }
      ],
      "stateMutability": "view",
      "type": "function"
    },
    {
      "inputs": [
        {
          "internalType": "uint256",
          "name": "",
          "type": "uint256"
        }
      ],
      "name": "patientAddresses",
      "outputs": [
        {
          "internalType": "address",
          "name": "",
          "type": "address"
        }
      ],
      "stateMutability": "view",
      "type": "function"
    },
    {
      "inputs": [],
      "name": "patientCount",
      "outputs": [
        {
          "internalType": "uint256",
          "name": "",
          "type": "uint256"
        }
      ],
      "stateMutability": "view",
      "type": "function"
    },
    {
      "inputs": [
        {
          "internalType": "address",
          "name": "",
          "type": "address"
        }
      ],
      "name": "patientIds",
      "outputs": [
        {
          "internalType": "uint256",
          "name": "",
          "type": "uint256"
        }
      ],
      "stateMutability": "view",
      "type": "function"
    },
    {
      "inputs": [],
      "name": "personCount",
      "outputs": [
        {
          "internalType": "uint256",
          "name": "",
          "type": "uint256"
        }
      ],
      "stateMutability": "view",
      "type": "function"
    },
    {
      "inputs": [
        {
          "internalType": "address",
          "name": "",
          "type": "address"
        }
      ],
      "name": "persons",
      "outputs": [
        {
          "internalType": "uint256",
          "name": "id",
          "type": "uint256"
        },
        {
          "internalType": "string",
          "name": "encryptedName",
          "type": "string"
        },
        {
          "internalType": "string",
          "name": "encryptedEmail",
          "type": "string"
        },
        {
          "internalType": "string",
          "name": "encryptedPhone",
          "type": "string"
        },
        {
          "internalType": "string",
          "name": "encryptedAddress",
          "type": "string"
        },
        {
          "internalType": "address",
          "name": "walletAddress",
          "type": "address"
        },
        {
          "internalType": "enum HealthCare.Sex",
          "name": "sex",
          "type": "uint8"
        }
      ],
      "stateMutability": "view",
      "type": "function"
    },
    {
      "inputs": [
        {
          "internalType": "string",
          "name": "_name",
          "type": "string"
        },
        {
          "internalType": "string",
          "name": "_email",
          "type": "string"
        },
        {
          "internalType": "string",
          "name": "_phone",
          "type": "string"
        },
        {
          "internalType": "string",
          "name": "_address",
          "type": "string"
        },
        {
          "internalType": "string",
          "name": "_regNumber",
          "type": "string"
        },
        {
          "internalType": "string",
          "name": "_adminName",
          "type": "string"
        }
      ],
      "name": "registerHospital",
      "outputs": [],
      "stateMutability": "nonpayable",
      "type": "function"
    },
    {
      "inputs": [
        {
          "internalType": "string",
          "name": "_name",
          "type": "string"
        },
        {
          "internalType": "string",
          "name": "_email",
          "type": "string"
        },
        {
          "internalType": "string",
          "name": "_phone",
          "type": "string"
        },
        {
          "internalType": "string",
          "name": "_address",
          "type": "string"
        },
        {
          "internalType": "enum HealthCare.Sex",
          "name": "_sex",
          "type": "uint8"
        }
      ],
      "name": "registerPerson",
      "outputs": [],
      "stateMutability": "nonpayable",
      "type": "function"
    },
    {
      "inputs": [],
      "name": "renounceOwnership",
      "outputs": [],
      "stateMutability": "nonpayable",
      "type": "function"
    },
    {
      "inputs": [],
      "name": "symbol",
      "outputs": [
        {
          "internalType": "string",
          "name": "",
          "type": "string"
        }
      ],
      "stateMutability": "view",
      "type": "function"
    },
    {
      "inputs": [],
      "name": "totalSupply",
      "outputs": [
        {
          "internalType": "uint256",
          "name": "",
          "type": "uint256"
        }
      ],
      "stateMutability": "view",
      "type": "function"
    },
    {
      "inputs": [
        {
          "internalType": "address",
          "name": "to",
          "type": "address"
        },
        {
          "internalType": "uint256",
          "name": "value",
          "type": "uint256"
        }
      ],
      "name": "transfer",
      "outputs": [
        {
          "internalType": "bool",
          "name": "",
          "type": "bool"
        }
      ],
      "stateMutability": "nonpayable",
      "type": "function"
    },
    {
      "inputs": [
        {
          "internalType": "address",
          "name": "from",
          "type": "address"
        },
        {
          "internalType": "address",
          "name": "to",
          "type": "address"
        },
        {
          "internalType": "uint256",
          "name": "value",
          "type": "uint256"
        }
      ],
      "name": "transferFrom",
      "outputs": [
        {
          "internalType": "bool",
          "name": "",
          "type": "bool"
        }
      ],
      "stateMutability": "nonpayable",
      "type": "function"
    },
    {
      "inputs": [
        {
          "internalType": "address",
          "name": "newOwner",
          "type": "address"
        }
      ],
      "name": "transferOwnership",
      "outputs": [],
      "stateMutability": "nonpayable",
      "type": "function"
    },
    {
      "inputs": [
        {
          "internalType": "address",
          "name": "",
          "type": "address"
        }
      ],
      "name": "userTypes",
      "outputs": [
        {
          "internalType": "enum HealthCare.UserType",
          "name": "",
          "type": "uint8"
        }
      ],
      "stateMutability": "view",
      "type": "function"
    }
  ],
  "bytecode": "0x60806040526001600b5534801561001557600080fd5b50336040518060400160405280600f81526020017f4865616c746843617265546f6b656e00000000000000000000000000000000008152506040518060400160405280600381526020017f48435400000000000000000000000000000000000000000000000000000000008152508160039081610092919061072f565b5080600490816100a2919061072f565b505050600073ffffffffffffffffffffffffffffffffffffffff168173ffffffffffffffffffffffffffffffffffffffff16036101175760006040517f1e4fbdf700000000000000000000000000000000000000000000000000000000815260040161010e9190610842565b60405180910390fd5b6101268161016360201b60201c565b5061015e3361013961022960201b60201c565b600a61014591906109cc565b620f42406101539190610a17565b61023260201b60201c565b610aee565b6000600560009054906101000a900473ffffffffffffffffffffffffffffffffffffffff16905081600560006101000a81548173ffffffffffffffffffffffffffffffffffffffff021916908373ffffffffffffffffffffffffffffffffffffffff1602179055508173ffffffffffffffffffffffffffffffffffffffff168173ffffffffffffffffffffffffffffffffffffffff167f8be0079c531659141344cd1fd0a4f28419497f9722a3daafe3b4186f6b6457e060405160405180910390a35050565b60006012905090565b600073ffffffffffffffffffffffffffffffffffffffff168273ffffffffffffffffffffffffffffffffffffffff16036102a45760006040517fec442f0500000000000000000000000000000000000000000000000000000000815260040161029b9190610842565b60405180910390fd5b6102b6600083836102ba60201b60201c565b5050565b600073ffffffffffffffffffffffffffffffffffffffff168373ffffffffffffffffffffffffffffffffffffffff160361030c5780600260008282546103009190610a59565b925050819055506103df565b60008060008573ffffffffffffffffffffffffffffffffffffffff1673ffffffffffffffffffffffffffffffffffffffff16815260200190815260200160002054905081811015610398578381836040517fe450d38c00000000000000000000000000000000000000000000000000000000815260040161038f93929190610a9c565b60405180910390fd5b8181036000808673ffffffffffffffffffffffffffffffffffffffff1673ffffffffffffffffffffffffffffffffffffffff16815260200190815260200160002081905550505b600073ffffffffffffffffffffffffffffffffffffffff168273ffffffffffffffffffffffffffffffffffffffff16036104285780600260008282540392505081905550610475565b806000808473ffffffffffffffffffffffffffffffffffffffff1673ffffffffffffffffffffffffffffffffffffffff168152602001908152602001600020600082825401925050819055505b8173ffffffffffffffffffffffffffffffffffffffff168373ffffffffffffffffffffffffffffffffffffffff167fddf252ad1be2c89b69c2b068fc378daa952ba7f163c4a11628f55a4df523b3ef836040516104d29190610ad3565b60405180910390a3505050565b600081519050919050565b7f4e487b7100000000000000000000000000000000000000000000000000000000600052604160045260246000fd5b7f4e487b7100000000000000000000000000000000000000000000000000000000600052602260045260246000fd5b6000600282049050600182168061056057607f821691505b60208210810361057357610572610519565b5b50919050565b60008190508160005260206000209050919050565b60006020601f8301049050919050565b600082821b905092915050565b6000600883026105db7fffffffffffffffffffffffffffffffffffffffffffffffffffffffffffffffff8261059e565b6105e5868361059e565b95508019841693508086168417925050509392505050565b6000819050919050565b6000819050919050565b600061062c610627610622846105fd565b610607565b6105fd565b9050919050565b6000819050919050565b61064683610611565b61065a61065282610633565b8484546105ab565b825550505050565b600090565b61066f610662565b61067a81848461063d565b505050565b5b8181101561069e57610693600082610667565b600181019050610680565b5050565b601f8211156106e3576106b481610579565b6106bd8461058e565b810160208510156106cc578190505b6106e06106d88561058e565b83018261067f565b50505b505050565b600082821c905092915050565b6000610706600019846008026106e8565b1980831691505092915050565b600061071f83836106f5565b9150826002028217905092915050565b610738826104df565b67ffffffffffffffff811115610751576107506104ea565b5b61075b8254610548565b6107668282856106a2565b600060209050601f8311600181146107995760008415610787578287015190505b6107918582610713565b8655506107f9565b601f1984166107a786610579565b60005b828110156107cf578489015182556001820191506020850194506020810190506107aa565b868310156107ec57848901516107e8601f8916826106f5565b8355505b6001600288020188555050505b505050505050565b600073ffffffffffffffffffffffffffffffffffffffff82169050919050565b600061082c82610801565b9050919050565b61083c81610821565b82525050565b60006020820190506108576000830184610833565b92915050565b7f4e487b7100000000000000000000000000000000000000000000000000000000600052601160045260246000fd5b60008160011c9050919050565b6000808291508390505b60018511156108e3578086048111156108bf576108be61085d565b5b60018516156108ce5780820291505b80810290506108dc8561088c565b94506108a3565b94509492505050565b6000826108fc57600190506109b8565b8161090a57600090506109b8565b8160018114610920576002811461092a57610959565b60019150506109b8565b60ff84111561093c5761093b61085d565b5b8360020a9150848211156109535761095261085d565b5b506109b8565b5060208310610133831016604e8410600b841016171561098e5782820a9050838111156109895761098861085d565b5b6109b8565b61099b8484846001610899565b925090508184048111156109b2576109b161085d565b5b81810290505b9392505050565b600060ff82169050919050565b60006109d7826105fd565b91506109e2836109bf565b9250610a0f7fffffffffffffffffffffffffffffffffffffffffffffffffffffffffffffffff84846108ec565b905092915050565b6000610a22826105fd565b9150610a2d836105fd565b9250828202610a3b816105fd565b91508282048414831517610a5257610a5161085d565b5b5092915050565b6000610a64826105fd565b9150610a6f836105fd565b9250828201905080821115610a8757610a8661085d565b5b92915050565b610a96816105fd565b82525050565b6000606082019050610ab16000830186610833565b610abe6020830185610a8d565b610acb6040830184610a8d565b949350505050565b6000602082019050610ae86000830184610a8d565b92915050565b6132c780610afd6000396000f3fe608060405234801561001057600080fd5b506004361061018e5760003560e01c80637f247e49116100de578063a0303c4111610097578063b40f169111610071578063b40f1691146104b6578063dd62ed3e146104e6578063f093cf8014610516578063f2fde38b1461054d5761018e565b8063a0303c411461044c578063a9059cbb1461046a578063a9a862841461049a5761018e565b80637f247e491461034a57806387cd273c1461037a5780638ada2cf6146103aa5780638b3f863f146103e05780638da5cb5b1461041057806395d89b411461042e5761018e565b8063350dadb71161014b578063667f7ed211610125578063667f7ed2146102c257806370a08231146102f2578063715018a61461032257806378495bf81461032c5761018e565b8063350dadb71461026c578063371a199c1461028a578063389aec7f146102a65761018e565b806306fdde0314610193578063095ea7b3146101b157806318160ddd146101e157806318a231a9146101ff57806323b872dd1461021e578063313ce5671461024e575b600080fd5b61019b610569565b6040516101a891906122f2565b60405180910390f35b6101cb60048036038101906101c691906123bc565b6105fb565b6040516101d89190612417565b60405180910390f35b6101e961061e565b6040516101f69190612441565b60405180910390f35b610207610628565b604051610215929190612626565b60405180910390f35b6102386004803603810190610233919061265d565b6108d2565b6040516102459190612417565b60405180910390f35b610256610901565b60405161026391906126cc565b60405180910390f35b61027461090a565b6040516102819190612441565b60405180910390f35b6102a4600480360381019061029f9190612841565b610910565b005b6102c060048036038101906102bb919061292c565b610bff565b005b6102dc60048036038101906102d79190612a61565b610ee0565b6040516102e99190612441565b60405180910390f35b61030c60048036038101906103079190612a61565b610ef8565b6040516103199190612441565b60405180910390f35b61032a610f40565b005b610334610f54565b6040516103419190612441565b60405180910390f35b610364600480360381019061035f9190612a61565b610f5a565b6040516103719190612417565b60405180910390f35b610394600480360381019061038f9190612a61565b610fd7565b6040516103a19190612b05565b60405180910390f35b6103c460048036038101906103bf9190612a61565b610ff7565b6040516103d79796959493929190612b77565b60405180910390f35b6103fa60048036038101906103f59190612a61565b611286565b6040516104079190612b05565b60405180910390f35b6104186112dc565b6040516104259190612c02565b60405180910390f35b610436611306565b60405161044391906122f2565b60405180910390f35b610454611398565b6040516104619190612441565b60405180910390f35b610484600480360381019061047f91906123bc565b61139e565b6040516104919190612417565b60405180910390f35b6104b460048036038101906104af9190612841565b6113c1565b005b6104d060048036038101906104cb9190612c1d565b61169e565b6040516104dd9190612c02565b60405180910390f35b61050060048036038101906104fb9190612c4a565b6116d1565b60405161050d9190612441565b60405180910390f35b610530600480360381019061052b9190612a61565b611758565b604051610544989796959493929190612c8a565b60405180910390f35b61056760048036038101906105629190612a61565b611af0565b005b60606003805461057890612d61565b80601f01602080910402602001604051908101604052809291908181526020018280546105a490612d61565b80156105f15780601f106105c6576101008083540402835291602001916105f1565b820191906000526020600020905b8154815290600101906020018083116105d457829003601f168201915b5050505050905090565b600080610606611b76565b9050610613818585611b7e565b600191505092915050565b6000600254905090565b60608060006001600b5461063c9190612dc1565b67ffffffffffffffff811115610655576106546126f1565b5b6040519080825280602002602001820160405280156106835781602001602082028036833780820191505090505b50905060006001600b546106979190612dc1565b67ffffffffffffffff8111156106b0576106af6126f1565b5b6040519080825280602002602001820160405280156106e357816020015b60608152602001906001900390816106ce5790505b5090506000600190505b600b548110156108c55760008190506000600760008373ffffffffffffffffffffffffffffffffffffffff1673ffffffffffffffffffffffffffffffffffffffff168152602001908152602001600020600101805461074b90612d61565b905011156108b757600760008273ffffffffffffffffffffffffffffffffffffffff1673ffffffffffffffffffffffffffffffffffffffff16815260200190815260200160002060000154846001846107a49190612dc1565b815181106107b5576107b4612df5565b5b602002602001018181525050600760008273ffffffffffffffffffffffffffffffffffffffff1673ffffffffffffffffffffffffffffffffffffffff168152602001908152602001600020600101805461080e90612d61565b80601f016020809104026020016040519081016040528092919081815260200182805461083a90612d61565b80156108875780601f1061085c57610100808354040283529160200191610887565b820191906000526020600020905b81548152906001019060200180831161086a57829003601f168201915b50505050508360018461089a9190612dc1565b815181106108ab576108aa612df5565b5b60200260200101819052505b5080806001019150506106ed565b5081819350935050509091565b6000806108dd611b76565b90506108ea858285611b90565b6108f5858585611c25565b60019150509392505050565b60006012905090565b600c5481565b6000600281111561092457610923612a8e565b5b600860003373ffffffffffffffffffffffffffffffffffffffff1673ffffffffffffffffffffffffffffffffffffffff16815260200190815260200160002060009054906101000a900460ff16600281111561098357610982612a8e565b5b146109c3576040517f08c379a00000000000000000000000000000000000000000000000000000000081526004016109ba90612e70565b60405180910390fd5b6040518060e00160405280600d5481526020018681526020018581526020018481526020018381526020013373ffffffffffffffffffffffffffffffffffffffff168152602001826002811115610a1d57610a1c612a8e565b5b815250600760003373ffffffffffffffffffffffffffffffffffffffff1673ffffffffffffffffffffffffffffffffffffffff168152602001908152602001600020600082015181600001556020820151816001019081610a7e919061303c565b506040820151816002019081610a94919061303c565b506060820151816003019081610aaa919061303c565b506080820151816004019081610ac0919061303c565b5060a08201518160050160006101000a81548173ffffffffffffffffffffffffffffffffffffffff021916908373ffffffffffffffffffffffffffffffffffffffff16021790555060c08201518160050160146101000a81548160ff02191690836002811115610b3357610b32612a8e565b5b02179055509050506002600860003373ffffffffffffffffffffffffffffffffffffffff1673ffffffffffffffffffffffffffffffffffffffff16815260200190815260200160002060006101000a81548160ff02191690836002811115610b9e57610b9d612a8e565b5b0217905550600d6000815480929190610bb69061310e565b91905055507fcfe944c6a9100ac5d7cd05f0455031fec931fbf6e159fd51104155793ae4afeb600d548633604051610bf093929190613156565b60405180910390a15050505050565b60006002811115610c1357610c12612a8e565b5b600860003373ffffffffffffffffffffffffffffffffffffffff1673ffffffffffffffffffffffffffffffffffffffff16815260200190815260200160002060009054906101000a900460ff166002811115610c7257610c71612a8e565b5b14610cb2576040517f08c379a0000000000000000000000000000000000000000000000000000000008152600401610ca990612e70565b60405180910390fd5b604051806101000160405280600c5481526020018781526020018681526020018581526020018481526020018381526020018281526020013373ffffffffffffffffffffffffffffffffffffffff16815250600660003373ffffffffffffffffffffffffffffffffffffffff1673ffffffffffffffffffffffffffffffffffffffff168152602001908152602001600020600082015181600001556020820151816001019081610d62919061303c565b506040820151816002019081610d78919061303c565b506060820151816003019081610d8e919061303c565b506080820151816004019081610da4919061303c565b5060a0820151816005019081610dba919061303c565b5060c0820151816006019081610dd0919061303c565b5060e08201518160070160006101000a81548173ffffffffffffffffffffffffffffffffffffffff021916908373ffffffffffffffffffffffffffffffffffffffff1602179055509050506001600860003373ffffffffffffffffffffffffffffffffffffffff1673ffffffffffffffffffffffffffffffffffffffff16815260200190815260200160002060006101000a81548160ff02191690836002811115610e7e57610e7d612a8e565b5b0217905550600c6000815480929190610e969061310e565b91905055507fbc26e9dd83eda23eaacac7e29ea9caabc2e3c1f68d6e6c2cbd7d4b2e5ff5a6f3600c548733604051610ed093929190613156565b60405180910390a1505050505050565b600a6020528060005260406000206000915090505481565b60008060008373ffffffffffffffffffffffffffffffffffffffff1673ffffffffffffffffffffffffffffffffffffffff168152602001908152602001600020549050919050565b610f48611d19565b610f526000611da0565b565b600d5481565b6000806002811115610f6f57610f6e612a8e565b5b600860008473ffffffffffffffffffffffffffffffffffffffff1673ffffffffffffffffffffffffffffffffffffffff16815260200190815260200160002060009054906101000a900460ff166002811115610fce57610fcd612a8e565b5b14159050919050565b60086020528060005260406000206000915054906101000a900460ff1681565b600760205280600052604060002060009150905080600001549080600101805461102090612d61565b80601f016020809104026020016040519081016040528092919081815260200182805461104c90612d61565b80156110995780601f1061106e57610100808354040283529160200191611099565b820191906000526020600020905b81548152906001019060200180831161107c57829003601f168201915b5050505050908060020180546110ae90612d61565b80601f01602080910402602001604051908101604052809291908181526020018280546110da90612d61565b80156111275780601f106110fc57610100808354040283529160200191611127565b820191906000526020600020905b81548152906001019060200180831161110a57829003601f168201915b50505050509080600301805461113c90612d61565b80601f016020809104026020016040519081016040528092919081815260200182805461116890612d61565b80156111b55780601f1061118a576101008083540402835291602001916111b5565b820191906000526020600020905b81548152906001019060200180831161119857829003601f168201915b5050505050908060040180546111ca90612d61565b80601f01602080910402602001604051908101604052809291908181526020018280546111f690612d61565b80156112435780601f1061121857610100808354040283529160200191611243565b820191906000526020600020905b81548152906001019060200180831161122657829003601f168201915b5050505050908060050160009054906101000a900473ffffffffffffffffffffffffffffffffffffffff16908060050160149054906101000a900460ff16905087565b6000600860008373ffffffffffffffffffffffffffffffffffffffff1673ffffffffffffffffffffffffffffffffffffffff16815260200190815260200160002060009054906101000a900460ff169050919050565b6000600560009054906101000a900473ffffffffffffffffffffffffffffffffffffffff16905090565b60606004805461131590612d61565b80601f016020809104026020016040519081016040528092919081815260200182805461134190612d61565b801561138e5780601f106113635761010080835404028352916020019161138e565b820191906000526020600020905b81548152906001019060200180831161137157829003601f168201915b5050505050905090565b600b5481565b6000806113a9611b76565b90506113b6818585611c25565b600191505092915050565b600160028111156113d5576113d4612a8e565b5b600860003373ffffffffffffffffffffffffffffffffffffffff1673ffffffffffffffffffffffffffffffffffffffff16815260200190815260200160002060009054906101000a900460ff16600281111561143457611433612a8e565b5b14611474576040517f08c379a000000000000000000000000000000000000000000000000000000000815260040161146b90613206565b60405180910390fd5b6000600b549050336009600083815260200190815260200160002060006101000a81548173ffffffffffffffffffffffffffffffffffffffff021916908373ffffffffffffffffffffffffffffffffffffffff1602179055506040518060e001604052808281526020018781526020018681526020018581526020018481526020013373ffffffffffffffffffffffffffffffffffffffff16815260200183600281111561152557611524612a8e565b5b815250600760008373ffffffffffffffffffffffffffffffffffffffff1673ffffffffffffffffffffffffffffffffffffffff168152602001908152602001600020600082015181600001556020820151816001019081611586919061303c565b50604082015181600201908161159c919061303c565b5060608201518160030190816115b2919061303c565b5060808201518160040190816115c8919061303c565b5060a08201518160050160006101000a81548173ffffffffffffffffffffffffffffffffffffffff021916908373ffffffffffffffffffffffffffffffffffffffff16021790555060c08201518160050160146101000a81548160ff0219169083600281111561163b5761163a612a8e565b5b0217905550905050600b60008154809291906116569061310e565b91905055507fcfe944c6a9100ac5d7cd05f0455031fec931fbf6e159fd51104155793ae4afeb81873360405161168e93929190613156565b60405180910390a1505050505050565b60096020528060005260406000206000915054906101000a900473ffffffffffffffffffffffffffffffffffffffff1681565b6000600160008473ffffffffffffffffffffffffffffffffffffffff1673ffffffffffffffffffffffffffffffffffffffff16815260200190815260200160002060008373ffffffffffffffffffffffffffffffffffffffff1673ffffffffffffffffffffffffffffffffffffffff16815260200190815260200160002054905092915050565b600660205280600052604060002060009150905080600001549080600101805461178190612d61565b80601f01602080910402602001604051908101604052809291908181526020018280546117ad90612d61565b80156117fa5780601f106117cf576101008083540402835291602001916117fa565b820191906000526020600020905b8154815290600101906020018083116117dd57829003601f168201915b50505050509080600201805461180f90612d61565b80601f016020809104026020016040519081016040528092919081815260200182805461183b90612d61565b80156118885780601f1061185d57610100808354040283529160200191611888565b820191906000526020600020905b81548152906001019060200180831161186b57829003601f168201915b50505050509080600301805461189d90612d61565b80601f01602080910402602001604051908101604052809291908181526020018280546118c990612d61565b80156119165780601f106118eb57610100808354040283529160200191611916565b820191906000526020600020905b8154815290600101906020018083116118f957829003601f168201915b50505050509080600401805461192b90612d61565b80601f016020809104026020016040519081016040528092919081815260200182805461195790612d61565b80156119a45780601f10611979576101008083540402835291602001916119a4565b820191906000526020600020905b81548152906001019060200180831161198757829003601f168201915b5050505050908060050180546119b990612d61565b80601f01602080910402602001604051908101604052809291908181526020018280546119e590612d61565b8015611a325780601f10611a0757610100808354040283529160200191611a32565b820191906000526020600020905b815481529060010190602001808311611a1557829003601f168201915b505050505090806006018054611a4790612d61565b80601f0160208091040260200160405190810160405280929190818152602001828054611a7390612d61565b8015611ac05780601f10611a9557610100808354040283529160200191611ac0565b820191906000526020600020905b815481529060010190602001808311611aa357829003601f168201915b5050505050908060070160009054906101000a900473ffffffffffffffffffffffffffffffffffffffff16905088565b611af8611d19565b600073ffffffffffffffffffffffffffffffffffffffff168173ffffffffffffffffffffffffffffffffffffffff1603611b6a5760006040517f1e4fbdf7000000000000000000000000000000000000000000000000000000008152600401611b619190612c02565b60405180910390fd5b611b7381611da0565b50565b600033905090565b611b8b8383836001611e66565b505050565b6000611b9c84846116d1565b90507fffffffffffffffffffffffffffffffffffffffffffffffffffffffffffffffff811015611c1f5781811015611c0f578281836040517ffb8f41b2000000000000000000000000000000000000000000000000000000008152600401611c0693929190613226565b60405180910390fd5b611c1e84848484036000611e66565b5b50505050565b600073ffffffffffffffffffffffffffffffffffffffff168373ffffffffffffffffffffffffffffffffffffffff1603611c975760006040517f96c6fd1e000000000000000000000000000000000000000000000000000000008152600401611c8e9190612c02565b60405180910390fd5b600073ffffffffffffffffffffffffffffffffffffffff168273ffffffffffffffffffffffffffffffffffffffff1603611d095760006040517fec442f05000000000000000000000000000000000000000000000000000000008152600401611d009190612c02565b60405180910390fd5b611d1483838361203d565b505050565b611d21611b76565b73ffffffffffffffffffffffffffffffffffffffff16611d3f6112dc565b73ffffffffffffffffffffffffffffffffffffffff1614611d9e57611d62611b76565b6040517f118cdaa7000000000000000000000000000000000000000000000000000000008152600401611d959190612c02565b60405180910390fd5b565b6000600560009054906101000a900473ffffffffffffffffffffffffffffffffffffffff16905081600560006101000a81548173ffffffffffffffffffffffffffffffffffffffff021916908373ffffffffffffffffffffffffffffffffffffffff1602179055508173ffffffffffffffffffffffffffffffffffffffff168173ffffffffffffffffffffffffffffffffffffffff167f8be0079c531659141344cd1fd0a4f28419497f9722a3daafe3b4186f6b6457e060405160405180910390a35050565b600073ffffffffffffffffffffffffffffffffffffffff168473ffffffffffffffffffffffffffffffffffffffff1603611ed85760006040517fe602df05000000000000000000000000000000000000000000000000000000008152600401611ecf9190612c02565b60405180910390fd5b600073ffffffffffffffffffffffffffffffffffffffff168373ffffffffffffffffffffffffffffffffffffffff1603611f4a5760006040517f94280d62000000000000000000000000000000000000000000000000000000008152600401611f419190612c02565b60405180910390fd5b81600160008673ffffffffffffffffffffffffffffffffffffffff1673ffffffffffffffffffffffffffffffffffffffff16815260200190815260200160002060008573ffffffffffffffffffffffffffffffffffffffff1673ffffffffffffffffffffffffffffffffffffffff168152602001908152602001600020819055508015612037578273ffffffffffffffffffffffffffffffffffffffff168473ffffffffffffffffffffffffffffffffffffffff167f8c5be1e5ebec7d5bd14f71427d1e84f3dd0314c0f7b2291e5b200ac8c7c3b9258460405161202e9190612441565b60405180910390a35b50505050565b600073ffffffffffffffffffffffffffffffffffffffff168373ffffffffffffffffffffffffffffffffffffffff160361208f578060026000828254612083919061325d565b92505081905550612162565b60008060008573ffffffffffffffffffffffffffffffffffffffff1673ffffffffffffffffffffffffffffffffffffffff1681526020019081526020016000205490508181101561211b578381836040517fe450d38c00000000000000000000000000000000000000000000000000000000815260040161211293929190613226565b60405180910390fd5b8181036000808673ffffffffffffffffffffffffffffffffffffffff1673ffffffffffffffffffffffffffffffffffffffff16815260200190815260200160002081905550505b600073ffffffffffffffffffffffffffffffffffffffff168273ffffffffffffffffffffffffffffffffffffffff16036121ab57806002600082825403925050819055506121f8565b806000808473ffffffffffffffffffffffffffffffffffffffff1673ffffffffffffffffffffffffffffffffffffffff168152602001908152602001600020600082825401925050819055505b8173ffffffffffffffffffffffffffffffffffffffff168373ffffffffffffffffffffffffffffffffffffffff167fddf252ad1be2c89b69c2b068fc378daa952ba7f163c4a11628f55a4df523b3ef836040516122559190612441565b60405180910390a3505050565b600081519050919050565b600082825260208201905092915050565b60005b8381101561229c578082015181840152602081019050612281565b60008484015250505050565b6000601f19601f8301169050919050565b60006122c482612262565b6122ce818561226d565b93506122de81856020860161227e565b6122e7816122a8565b840191505092915050565b6000602082019050818103600083015261230c81846122b9565b905092915050565b6000604051905090565b600080fd5b600080fd5b600073ffffffffffffffffffffffffffffffffffffffff82169050919050565b600061235382612328565b9050919050565b61236381612348565b811461236e57600080fd5b50565b6000813590506123808161235a565b92915050565b6000819050919050565b61239981612386565b81146123a457600080fd5b50565b6000813590506123b681612390565b92915050565b600080604083850312156123d3576123d261231e565b5b60006123e185828601612371565b92505060206123f2858286016123a7565b9150509250929050565b60008115159050919050565b612411816123fc565b82525050565b600060208201905061242c6000830184612408565b92915050565b61243b81612386565b82525050565b60006020820190506124566000830184612432565b92915050565b600081519050919050565b600082825260208201905092915050565b6000819050602082019050919050565b61249181612386565b82525050565b60006124a38383612488565b60208301905092915050565b6000602082019050919050565b60006124c78261245c565b6124d18185612467565b93506124dc83612478565b8060005b8381101561250d5781516124f48882612497565b97506124ff836124af565b9250506001810190506124e0565b5085935050505092915050565b600081519050919050565b600082825260208201905092915050565b6000819050602082019050919050565b600082825260208201905092915050565b600061256282612262565b61256c8185612546565b935061257c81856020860161227e565b612585816122a8565b840191505092915050565b600061259c8383612557565b905092915050565b6000602082019050919050565b60006125bc8261251a565b6125c68185612525565b9350836020820285016125d885612536565b8060005b8581101561261457848403895281516125f58582612590565b9450612600836125a4565b925060208a019950506001810190506125dc565b50829750879550505050505092915050565b6000604082019050818103600083015261264081856124bc565b9050818103602083015261265481846125b1565b90509392505050565b6000806000606084860312156126765761267561231e565b5b600061268486828701612371565b935050602061269586828701612371565b92505060406126a6868287016123a7565b9150509250925092565b600060ff82169050919050565b6126c6816126b0565b82525050565b60006020820190506126e160008301846126bd565b92915050565b600080fd5b600080fd5b7f4e487b7100000000000000000000000000000000000000000000000000000000600052604160045260246000fd5b612729826122a8565b810181811067ffffffffffffffff82111715612748576127476126f1565b5b80604052505050565b600061275b612314565b90506127678282612720565b919050565b600067ffffffffffffffff821115612787576127866126f1565b5b612790826122a8565b9050602081019050919050565b82818337600083830152505050565b60006127bf6127ba8461276c565b612751565b9050828152602081018484840111156127db576127da6126ec565b5b6127e684828561279d565b509392505050565b600082601f830112612803576128026126e7565b5b81356128138482602086016127ac565b91505092915050565b6003811061282957600080fd5b50565b60008135905061283b8161281c565b92915050565b600080600080600060a0868803121561285d5761285c61231e565b5b600086013567ffffffffffffffff81111561287b5761287a612323565b5b612887888289016127ee565b955050602086013567ffffffffffffffff8111156128a8576128a7612323565b5b6128b4888289016127ee565b945050604086013567ffffffffffffffff8111156128d5576128d4612323565b5b6128e1888289016127ee565b935050606086013567ffffffffffffffff81111561290257612901612323565b5b61290e888289016127ee565b925050608061291f8882890161282c565b9150509295509295909350565b60008060008060008060c087890312156129495761294861231e565b5b600087013567ffffffffffffffff81111561296757612966612323565b5b61297389828a016127ee565b965050602087013567ffffffffffffffff81111561299457612993612323565b5b6129a089828a016127ee565b955050604087013567ffffffffffffffff8111156129c1576129c0612323565b5b6129cd89828a016127ee565b945050606087013567ffffffffffffffff8111156129ee576129ed612323565b5b6129fa89828a016127ee565b935050608087013567ffffffffffffffff811115612a1b57612a1a612323565b5b612a2789828a016127ee565b92505060a087013567ffffffffffffffff811115612a4857612a47612323565b5b612a5489828a016127ee565b9150509295509295509295565b600060208284031215612a7757612a7661231e565b5b6000612a8584828501612371565b91505092915050565b7f4e487b7100000000000000000000000000000000000000000000000000000000600052602160045260246000fd5b60038110612ace57612acd612a8e565b5b50565b6000819050612adf82612abd565b919050565b6000612aef82612ad1565b9050919050565b612aff81612ae4565b82525050565b6000602082019050612b1a6000830184612af6565b92915050565b612b2981612348565b82525050565b60038110612b4057612b3f612a8e565b5b50565b6000819050612b5182612b2f565b919050565b6000612b6182612b43565b9050919050565b612b7181612b56565b82525050565b600060e082019050612b8c600083018a612432565b8181036020830152612b9e81896122b9565b90508181036040830152612bb281886122b9565b90508181036060830152612bc681876122b9565b90508181036080830152612bda81866122b9565b9050612be960a0830185612b20565b612bf660c0830184612b68565b98975050505050505050565b6000602082019050612c176000830184612b20565b92915050565b600060208284031215612c3357612c3261231e565b5b6000612c41848285016123a7565b91505092915050565b60008060408385031215612c6157612c6061231e565b5b6000612c6f85828601612371565b9250506020612c8085828601612371565b9150509250929050565b600061010082019050612ca0600083018b612432565b8181036020830152612cb2818a6122b9565b90508181036040830152612cc681896122b9565b90508181036060830152612cda81886122b9565b90508181036080830152612cee81876122b9565b905081810360a0830152612d0281866122b9565b905081810360c0830152612d1681856122b9565b9050612d2560e0830184612b20565b9998505050505050505050565b7f4e487b7100000000000000000000000000000000000000000000000000000000600052602260045260246000fd5b60006002820490506001821680612d7957607f821691505b602082108103612d8c57612d8b612d32565b5b50919050565b7f4e487b7100000000000000000000000000000000000000000000000000000000600052601160045260246000fd5b6000612dcc82612386565b9150612dd783612386565b9250828203905081811115612def57612dee612d92565b5b92915050565b7f4e487b7100000000000000000000000000000000000000000000000000000000600052603260045260246000fd5b7f416c726561647920726567697374657265642100000000000000000000000000600082015250565b6000612e5a60138361226d565b9150612e6582612e24565b602082019050919050565b60006020820190508181036000830152612e8981612e4d565b9050919050565b60008190508160005260206000209050919050565b60006020601f8301049050919050565b600082821b905092915050565b600060088302612ef27fffffffffffffffffffffffffffffffffffffffffffffffffffffffffffffffff82612eb5565b612efc8683612eb5565b95508019841693508086168417925050509392505050565b6000819050919050565b6000612f39612f34612f2f84612386565b612f14565b612386565b9050919050565b6000819050919050565b612f5383612f1e565b612f67612f5f82612f40565b848454612ec2565b825550505050565b600090565b612f7c612f6f565b612f87818484612f4a565b505050565b5b81811015612fab57612fa0600082612f74565b600181019050612f8d565b5050565b601f821115612ff057612fc181612e90565b612fca84612ea5565b81016020851015612fd9578190505b612fed612fe585612ea5565b830182612f8c565b50505b505050565b600082821c905092915050565b600061301360001984600802612ff5565b1980831691505092915050565b600061302c8383613002565b9150826002028217905092915050565b61304582612262565b67ffffffffffffffff81111561305e5761305d6126f1565b5b6130688254612d61565b613073828285612faf565b600060209050601f8311600181146130a65760008415613094578287015190505b61309e8582613020565b865550613106565b601f1984166130b486612e90565b60005b828110156130dc578489015182556001820191506020850194506020810190506130b7565b868310156130f957848901516130f5601f891682613002565b8355505b6001600288020188555050505b505050505050565b600061311982612386565b91507fffffffffffffffffffffffffffffffffffffffffffffffffffffffffffffffff820361314b5761314a612d92565b5b600182019050919050565b600060608201905061316b6000830186612432565b818103602083015261317d81856122b9565b905061318c6040830184612b20565b949350505050565b7f4f6e6c7920686f73706974616c732063616e206164642070617469656e74206460008201527f657461696c732100000000000000000000000000000000000000000000000000602082015250565b60006131f060278361226d565b91506131fb82613194565b604082019050919050565b6000602082019050818103600083015261321f816131e3565b9050919050565b600060608201905061323b6000830186612b20565b6132486020830185612432565b6132556040830184612432565b949350505050565b600061326882612386565b915061327383612386565b925082820190508082111561328b5761328a612d92565b5b9291505056fea2646970667358221220aba5edccc433400c1727821ea554e6fac7043cec236ebd1ca5b26779b428aca964736f6c634300081c0033",
  "linkReferences": {},
  "deployedLinkReferences": {}
}